:020000040800F2
:10000000005000206D180008310E0008370E00085F
:100010003D0E0008430E0008490E000800000000D5
:100020000000000000000000000000004F0E00086B
:100030005B0E000800000000670E0008730E000849
:10004000B5180008B5180008B5180008B51800085C
:10005000B5180008B5180008B5180008B51800084C
:10006000B5180008B5180008B5180008B51800083C
:10007000B5180008B5180008B5180008B51800082C
:10008000B5180008B5180008810E0008B51800085A
:10009000B5180008B5180008B5180008B51800080C
:1000A000B51800089D0E0008B5180008B51800081E
:1000B000B10E0008C50E0008D90E0008B5180008DA
:1000C000B5180008B5180008B5180008B5180008DC
:1000D000ED0E0008010F0008B5180008B51800085B
:1000E000150F0008B5180008B5180008000000003A
:1000F0000000000000000000000000000000000000
:0C01000000000000000000005FF808F1A3
:10010C0010B5054C237833B9044B13B10448AFF345
:10011C0000800123237010BD14000020000000009B
:10012C003455000808B5034B1BB103490348AFF322
:10013C00008008BD000000001800002034550008A5
:10014C0080B400AF024B1B681846BD4680BC70479C
:10015C003400002080B400AF054B00221A60054B20
:10016C001B6800225A6200BFBD4680BC704700BFAE
:10017C00340000205801002080B500AF0B4B1B78D9
:10018C00002B05D0FFF7E6FF084B01221A700BE09D
:10019C0001F0D4F9064803F089FE064803F086FE08
:1001AC00024B01221A7000BF80BD00BF300000203E
:1001BC0058010020A001002080B500AF01F0D2F959
:1001CC00064B00221A70064803F049FE054803F05E
:1001DC0046FEFFF7BFFF00BF80BD00BF3000002010
:1001EC0058010020A001002080B500AF0B4B00226D
:1001FC001A700B4B1B78AA2B02D0FF2B03D00AE0F2
:10020C00FFF7BAFF07E0FFF7D7FF002201210548EF
:10021C0002F00DFC00BF00BF80BD00BF47000020F6
:10022C00380000200008014080B582B000AF786033
:10023C00094B01221A70094B1A78094B1A700121CB
:10024C00084802F00CFC01220449074804F0D9FAD2
:10025C0000BF0837BD4680BD470000203800002095
:10026C003C000020000801407802002080B500AF5F
:10027C0001220549054804F0C4FA01220121044871
:10028C0002F0D5FB00BF80BD3800002078020020B2
:10029C000008014080B584B000AF7860FFF750FFD4
:1002AC00F860184B04221A70FB68DAB2154B5A70BE
:1002BC00FB681B0ADAB2134B9A707B681B88DAB2A4
:1002CC00104BDA707B681B881B0A9BB2DAB20D4BA1
:1002DC001A717B6802331B88DAB20A4B5A717B683D
:1002EC0002331B881B0A9BB2DAB2064B9A710423A9
:1002FC0007220449044804F0F9F900BF1037BD4641
:10030C0080BD00BF400000207802002080B500AF07
:10031C0001F0CCFA00F032F800F0D6FA00F03CF91B
:10032C0000F0A8FA00F002F900F006FA00F082F8EA
:10033C0000F0BEF800F0B2F900F04CFA00F05EF9F3
:10034C0001F0D6F8FFF792FF0A4B1B78002B01D077
:10035C00FFF74AFF084B1B78002B08D0064B0022F6
:10036C001A7001F0BBF803461846FFF793FF01F033
:10037C0005F9E9E747000020C002002080B594B0E1
:10038C0000AF07F1280328220021184605F0C4F815
:10039C0007F1140300221A605A609A60DA601A613D
:1003AC003B1D00221A605A609A60DA600123BB621E
:1003BC004FF48033FB6200233B630123BB630223B6
:1003CC007B644FF48033BB644FF4E013FB6407F1A0
:1003DC002803184602F074FB0346002B01D000F0F2
:1003EC0019FB0F237B610223BB610023FB614FF4DC
:1003FC0080633B6200237B6207F1140302211846E1
:10040C0002F0E0FD0346002B01D000F003FB0223B9
:10041C007B604FF40043FB603B1D184602F060FF0D
:10042C000346002B01D000F0F5FA00BF5037BD4653
:10043C0080BD000080B584B000AF3B1D00221A6067
:10044C005A609A60184B194A1A60174B00229A602E
:10045C00154B00221A73144B00221A75124B4FF4D1
:10046C000022DA61104B00225A600F4B01221A61F4
:10047C000D4801F07DFA0346002B01D000F0CAFABA
:10048C0001237B600123BB600023FB603B1D1946ED
:10049C00054801F0D5FD0346002B01D000F0BAFA57
:1004AC0000BF1037BD4680BD48000020002401402D
:1004BC0080B584B000AF3B1D00221A605A609A6070
:1004CC00184B194A1A60174B00229A60154B0022E0
:1004DC001A73144B00221A75124B4FF40022DA6176
:1004EC00104B00225A600F4B01221A610D4801F08B
:1004FC003FFA0346002B01D000F08CFA02237B60FC
:10050C000123BB600023FB603B1D1946054801F02D
:10051C0097FD0346002B01D000F07CFA00BF10378A
:10052C00BD4680BD780000200028014080B500AF9A
:10053C00174B184A1A60164B4FF482725A60144BC0
:10054C0000229A60124B0022DA60114B00221A61D1
:10055C000F4B00225A610E4B4FF400729A610C4BF8
:10056C002822DA610A4B00221A62094B00225A62D5
:10057C00074B00229A62064B0A22DA62044803F007
:10058C001BF80346002B01D000F044FA00BF80BDDD
:10059C00A80000200030014080B500AF154B164A72
:1005AC001A60144B00225A60124B00229A60114BB5
:1005BC000022DA600F4B00221A610E4B00225A61A6
:1005CC000C4B4FF400729A610A4B00221A62094BD1
:1005DC0000225A62074B00229A62064B0A22DA6208
:1005EC00044802F0E9FF0346002B01D000F012FA98
:1005FC0000BF80BD000100200038004080B586B0EF
:10060C0000AF07F1080300221A605A609A60DA60A2
:10061C003B4600221A605A601E4B1F4A1A601D4B43
:10062C004FF4E1525A601B4B00229A60194B09227D
:10063C00DA60184B00221A61164B00225A61154BD6
:10064C0000229A61134803F0BBFB0346002B01D038
:10065C0000F0E0F94FF48053BB6007F10803194632
:10066C000C4803F093FD0346002B01D000F0D2F9A7
:10067C0000233B6000237B603B461946054803F092
:10068C0075FF0346002B01D000F0C4F900BF1837EA
:10069C00BD4680BD58010020002C014080B586B0BD
:1006AC0000AF07F1080300221A605A609A60DA6002
:1006BC003B4600221A605A601E4B4FF080421A6073
:1006CC001C4B4FF6FF725A601A4B00229A60194B62
:1006DC0040F2E732DA60174B00221A61154B002208
:1006EC009A61144803F06CFB0346002B01D000F018
:1006FC0091F94FF48053BB6007F1080319460D487C
:10070C0003F044FD0346002B01D000F083F90023D5
:10071C003B6000237B603B461946064803F026FFEE
:10072C000346002B01D000F075F900BF1837BD4609
:10073C0080BD00BFA001002080B586B000AF07F1DE
:10074C00080300221A605A609A60DA603B46002265
:10075C001A605A601D4B1E4A1A601C4B48F6A04288
:10076C005A601A4B00229A60184B0A22DA60174B17
:10077C004FF480721A61154B00229A61134803F0F2
:10078C001FFB0346002B01D000F044F94FF48053BB
:10079C00BB6007F1080319460C4803F0F7FC03464D
:1007AC00002B01D000F036F930233B6000237B6036
:1007BC003B461946054803F0D9FE0346002B01D0F1
:1007CC0000F028F900BF1837BD4680BDE8010020B5
:1007DC000004004080B586B000AF07F1080300228A
:1007EC001A605A609A60DA603B4600221A605A60BE
:1007FC001E4B1F4A1A601D4B4FF4E1525A601B4BA3
:10080C0000229A60194B42F21072DA60174B4FF4C7
:10081C0000721A61154B00229A61144803F0D0FA49
:10082C000346002B01D000F0F5F84FF48053BB6069
:10083C0007F1080319460D4803F0A8FC0346002BEA
:10084C0001D000F0E7F820233B6000237B603B469F
:10085C001946064803F08AFE0346002B01D000F02F
:10086C00D9F800BF1837BD4680BD00BF300200204C
:10087C000008004080B500AF104B114A1A600F4BB6
:10088C00104A5A600D4B00229A600C4B0022DA6021
:10089C000A4B00221A61094B0C225A61074B0022A9
:1008AC009A61064B0022DA61044803F0CFFE03463E
:1008BC00002B01D000F0AEF800BF80BD7802002004
:1008CC000038014090D0030080B588B000AF07F12C
:1008DC00100300221A605A609A60DA60484B9B69D8
:1008EC00474A43F010039361454B9B6903F0100397
:1008FC00FB60FB68424B9B69414A43F020039361C8
:10090C003F4B9B6903F02003BB60BB683C4B9B696E
:10091C003B4A43F004039361394B9B6903F0040396
:10092C007B607B68364B9B69354A43F008039361C7
:10093C00334B9B6903F008033B603B6800224FF488
:10094C004041304802F073F8002248F219012E4859
:10095C0002F06DF8002201212C4802F068F84FF4E7
:10096C0040433B6101237B610023BB610223FB619C
:10097C0007F110031946234801F0BEFE48F2190393
:10098C003B6101237B610023BB610223FB6107F107
:10099C00100319461C4801F0AFFE01233B610123F3
:1009AC007B610023BB610223FB6107F11003194635
:1009BC00164801F0A1FE4FF480533B61144B7B6150
:1009CC000023BB6107F110031946104801F094FE97
:1009DC00C0233B6100237B610023BB6107F1100343
:1009EC0019460A4801F088FE00220021282001F057
:1009FC009AFD282001F0B3FD00BF2037BD4680BD15
:100A0C00001002400010014000080140000C0140A1
:100A1C000000211080B400AF72B600BFFEE70000EA
:100A2C0080B485B000AF154B9B69144A43F00103A9
:100A3C009361124B9B6903F00103BB60BB680F4BC6
:100A4C00DB690E4A43F08053D3610C4BDB6903F036
:100A5C0080537B607B680A4B5B68FB60FB6823F010
:100A6C00E063FB60FB6843F00073FB60044AFB68C7
:100A7C00536000BF1437BD4680BC70470010024065
:100A8C000000014080B58AB000AF786007F1180310
:100A9C0000221A605A609A60DA607B681B68304AE0
:100AAC0093422AD12F4B9B692E4A43F400739361D6
:100ABC002C4B9B6903F400737B617B69294B9B690D
:100ACC00284A43F004039361264B9B6903F004030B
:100ADC003B613B690223BB610323FB6107F11803F4
:100AEC001946214801F008FE00220121122001F0D4
:100AFC001AFD122001F033FD2EE07B681B681B4AA7
:100B0C00934229D1174B9B69164A43F48063936136
:100B1C00144B9B6903F48063FB60FB68114B9B696E
:100B2C00104A43F0040393610E4B9B6903F00403DA
:100B3C00BB60BB680423BB610323FB6107F1180393
:100B4C001946094801F0D8FD00220121122001F0BC
:100B5C00EAFC122001F003FD00BF2837BD4680BD22
:100B6C000024014000100240000801400028014010
:100B7C0080B58AB000AF786007F1180300221A60C4
:100B8C005A609A60DA607B681B683B4A934230D1AA
:100B9C003A4B9B69394A43F480539361374B9B69B9
:100BAC0003F480537B617B69344B9B69334A43F07C
:100BBC0004039361314B9B6903F004033B613B6974
:100BCC00A023BB610223FB6103237B6207F11803A3
:100BDC0019462B4801F090FD4023BB610023FB61BB
:100BEC0000233B6207F118031946254801F084FDE8
:100BFC003EE07B681B68234A934239D11F4BDB696B
:100C0C001E4A43F48043D3611C4BDB6903F48043DD
:100C1C00FB60FB68194B9B69184A43F0080393610E
:100C2C00164B9B6903F00803BB60BB684FF4204371
:100C3C00BB610023FB6100233B6207F118031946DB
:100C4C00114801F059FD4FF48043BB610223FB6155
:100C5C0003237B6207F1180319460B4801F04CFD86
:100C6C0000220021242001F05EFC242001F077FCFE
:100C7C0000BF2837BD4680BD003001400010024047
:100C8C000008014000380040000C014080B586B0DF
:100C9C0000AF78607B681B68344A934214D1344BA4
:100CAC009B69334A43F400639361314B9B6903F4B2
:100CBC0000637B617B6900220321192001F033FC66
:100CCC00192001F04CFC4CE07B681B68B3F1804FA1
:100CDC0014D1274BDB69264A43F00103D361244B23
:100CEC00DB6903F001033B613B69002203211C20FB
:100CFC0001F019FC1C2001F032FC32E07B681B680F
:100D0C001C4A934214D11A4BDB69194A43F0020373
:100D1C00D361174BDB6903F00203FB60FB68002215
:100D2C0001211D2001F0FFFB1D2001F018FC18E033
:100D3C007B681B68104A934213D10D4BDB690C4A3C
:100D4C0043F00403D3610A4BDB6903F00403BB607B
:100D5C00BB68002201211E2001F0E5FB1E2001F0E2
:100D6C00FEFB00BF1837BD4680BD00BF002C014004
:100D7C0000100240000400400008004080B588B01C
:100D8C0000AF786007F1100300221A605A609A6075
:100D9C00DA607B681B68204A934239D11F4B9B69F0
:100DAC001E4A43F4804393611C4B9B6903F48043BC
:100DBC00FB60FB68194B9B69184A43F00403936171
:100DCC00164B9B6903F00403BB60BB684FF40073C4
:100DDC003B6102237B610323FB6107F1100319467E
:100DEC000F4801F089FC4FF480633B6100237B6169
:100DFC000023BB6107F110031946094801F07CFC84
:100E0C0000220221252001F08EFB252001F0A7FBFA
:100E1C0000BF2037BD4680BD0038014000100240A5
:100E2C000008014080B400AFFEE780B400AFFEE7DD
:100E3C0080B400AFFEE780B400AFFEE780B400AF33
:100E4C00FEE780B400AF00BFBD4680BC704780B4E5
:100E5C0000AF00BFBD4680BC704780B400AF00BF80
:100E6C00BD4680BC704780B500AF00F065FD00BF8B
:100E7C0080BD000080B500AF034801F019F80348AD
:100E8C0001F016F800BF80BD48000020780000205B
:100E9C0080B500AF024803F089F800BF80BD00BFE9
:100EAC005801002080B500AF024803F07FF800BF66
:100EBC0080BD00BFA001002080B500AF024803F048
:100ECC0075F800BF80BD00BFE801002080B500AF01
:100EDC00024803F06BF800BF80BD00BF3002002059
:100EEC0080B500AF024802F079FC00BF80BD00BFA6
:100EFC000001002080B500AF024803F0A7FC00BF42
:100F0C0080BD00BF7802002080B500AF4FF4805048
:100F1C0001F0BEFD00BF80BD80B400AF00BFBD4678
:100F2C0080BC704780B400AF144B00221A80144B65
:100F3C0000221A80134B4FF6FF721A80124B0022BC
:100F4C001A80124B00221A70114B00221A70114B8E
:100F5C0000221A70104B4FF6FF721A800F4B0022B2
:100F6C001A700F4BFF221A700E4B00221A700E4B88
:100F7C0000221A7000BFBD4680BC7047E4050020FB
:100F8C00E605002004000020E805002010060020E3
:100F9C001106002012060020080000201706002071
:100FAC0006000020150600201606002080B483B031
:100FBC0000AF03460A46FB801346BB80B7F90630E8
:100FCC0040F2D922934205DDFB88A3F2DA239BB2CF
:100FDC00FB8001E00023FB80BB881F3B9BB2BB80E6
:100FEC007A4BB3F900309BB201339BB21AB2774BF8
:100FFC001A80774BB3F90030B7F906209A421BDD03
:10100C00B7F90630724AB2F900209B1A3B2BCCBFC1
:10101C0001230023DBB25AB26E4B93F90030134319
:10102C005AB26C4B1A706C4B93F90030DBB2013333
:10103C00DBB25AB2684B1A70644BB3F90030642BB4
:10104C0040F31082644B93F90030022B40F30A8278
:10105C005F4BB3F90030B7F906209A4280F2028256
:10106C005C4B93F90030012B40F0FC815A4B002271
:10107C001A70584B00221A70584B93F90030052BFC
:10108C0008DC564B93F90030DBB20133DBB25AB2B9
:10109C00524B1A70524B00221A7016E0504B93F9B7
:1010AC00003001334E4A92F9002011464D4A32F974
:1010BC0013204C4B23F81120494B93F90030DBB231
:1010CC000133DBB25AB2464B1A70454B93F90030E0
:1010DC00042BE3DD3E4BB3F90020424B5A81404BCD
:1010EC0000221A7016E03E4B93F9003001333C4A53
:1010FC0092F9002011463C4A32F913203A4B23F85E
:10110C001120374B93F90030DBB20133DBB25AB20A
:10111C00334B1A70324B93F90030042BE3DD324A17
:10112C00BB8853812E4B00221A7016E02C4B93F97E
:10113C00003001332A4A92F9002011462B4A32F929
:10114C0013202A4B23F81120254B93F90030DBB2E6
:10115C000133DBB25AB2224B1A70214B93F9003097
:10116C00042BE3DD194BB3F90020204B5A811B4BA8
:10117C0093F90030052B01DC002388E1184B002289
:10118C001A707AE01A4B00221A701A4B00221A704D
:10119C00194B00221A7053E0114B93F900301A4688
:1011AC00104B33F91220144B93F9003019460D4BA8
:1011BC0033F911309A4221DA0D4B93F90030DBB23E
:1011CC000133DBB25AB20A4B1A7030E0E40500204E
:1011DC00040000201206002011060020100600203A
:1011EC0013060020EC05002004060020F805002062
:1011FC00150600201606002014060020A64B93F9B5
:10120C0000301A46A54B33F91220A54B93F9003048
:10121C001946A24B33F911309A4208D1A14B93F9DC
:10122C000030DBB20133DBB25AB29E4B1A709C4BCE
:10123C0093F90030DBB20133DBB25AB2984B1A701F
:10124C00974B93F90030062BA6D1974B93F90030AE
:10125C00022B18D0944B93F90030012B04D1914BF5
:10126C0093F90030012B0EDC8B4B93F90030DBB281
:10127C000133DBB25AB2884B1A70874B93F90030AA
:10128C00062B7FF47FAF844B93F900301A46834BC7
:10129C0033F91220854B1A80854BB3F900301A466E
:1012AC00844B33F91230322B2BDD834B93F9003006
:1012BC00022B26DC814BB3F90030B3F1FF3F20D079
:1012CC007A4BB3F900301A467C4BB3F90030D31A81
:1012DC00002BB8BF5B42B3F5967F12DB764B93F9CC
:1012EC000030DBB20133DBB25AB2734B1A70744B61
:1012FC0093F90030DBB2013BDBB25AB2704B1A707F
:10130C00C1E06D4B00221A706D4B93F90030052B28
:10131C0018DC6B4B93F90030002B13D05E4B93F918
:10132C0000301A46664B93F90030013B9A4209DAB9
:10133C00634B93F90030DBB2013BDBB25AB2604B2A
:10134C001A70A0E0544B93F900205D4B1A70574B68
:10135C00B3F90020594B1A805A4BB3F90030002BCB
:10136C0014D1524BB3F90020524B1A804A4B93F9CB
:10137C0000301A46544B33F91220544B1A80514BFF
:10138C0001221A804A4B00221A807CE04D4BB3F9A3
:10139C0000309BB2013B9BB21AB24D4B1A8020E03D
:1013AC004B4BB3F900301A46424B33F912203F4BEA
:1013BC00B3F900309A4263D0454BB3F900301A466A
:1013CC003C4B33F91220394BB3F900309A4211DC03
:1013DC003F4BB3F900309BB2013B9BB21AB23C4B72
:1013EC001A803B4BB3F90020314BB3F900309A42D1
:1013FC00D6DA00E000BF364BB3F900301A462C4B5E
:10140C00B3F90030013B9A420AD1294BB3F90020C1
:10141C0093B201339BB219B2254B19802C4B1A8015
:10142C002B4BB3F900300133204AB2F90010214A9A
:10143C0022F81310264BB3F900309BB202339BB247
:10144C001AB2204B1A80144B93F900301946204BDA
:10145C00B3F9003001331C4A32F911101B4A22F83F
:10146C00131010E0114BB3F90030B7F906209A4273
:10147C0008DA184B00221A70174B00221A7002E07F
:10148C0000BF00E000BF094AFB8813800023184608
:10149C000C37BD4680BC704713060020EC050020BD
:1014AC00140600201606002015060020040000205B
:1014BC00E8050020C40200201706002008000020C8
:1014CC0006000020E605002004060020540400203D
:1014DC00EA050020120600201106002080B400AF9F
:1014EC00024B1846BD4680BC704700BF2406002046
:1014FC0080B500AF0C4B00221A700C4B00221A70F6
:10150C0000224FF400410A4801F091FA00224FF4F6
:10151C008041074801F08BFA064802F019FD064895
:10152C0002F016FD00BF80BD1E060020180600202C
:10153C000010014030020020E801002080B500AF0F
:10154C00064B1B78002B06D1054B00221A70FFF7B7
:10155C00E9FC00F057F800BF80BD00BF1806002062
:10156C001E06002080B500AF034B1B78002B01D06A
:10157C0000F0A4F800BF80BD1806002080B500AFB5
:10158C001B4B1B78002B30D01A4B93F90030012BDE
:10159C0027D1174B1B78012B02D0022B09D020E04E
:1015AC00154B1B8840F2F632934217D900F062F8C3
:1015BC0014E0124B1B881BB20F4A128812B2114650
:1015CC001846FFF7F3FC0C4B1B88B3F5957F07D837
:1015DC000B4B01221A7000F071F801E000BF00E023
:1015EC0000BF044B00221A7000E000BF80BD00BF9A
:1015FC00180600201F0600201A0600201C060020DA
:10160C001E06002080B500AF134B01221A70134B3D
:10161C0000221A80124802F049FC124802F046FCE3
:10162C00114800F083FB64210F4800F079FA0F4851
:10163C0000F07CFB64210D4800F072FA01224FF49B
:10164C0000410B4801F0F3F901224FF480410848A6
:10165C0001F0EDF900BF80BD180600202006002027
:10166C0030020020E8010020480000207800002013
:10167C000010014080B500AF0C4B02221A700C48D0
:10168C0002F066FC0B4B00221A80094802F00EFC9B
:10169C0000224FF40041084801F0C9F901224FF42F
:1016AC008041054801F0C3F900BF80BD1806002039
:1016BC0030020020200600200010014080B500AF51
:1016CC000F4802F045FC0F4802F042FC0E4B002282
:1016DC001A800E4B1B78022B0C4B00221A700C4BF1
:1016EC0000221A7000224FF400410A4801F09FF9C1
:1016FC0000224FF48041074801F099F900BF80BDEA
:10170C0030020020E80100202006002018060020EE
:10171C001E0600200010014080B582B000AF78603A
:10172C00194B1B78002B2AD07B681B68174A9342F5
:10173C000ED1786800F0B0FB03469AB2144B1A80B5
:10174C00134B1A88134B1A80134B01221A7017E093
:10175C007B681B68114A934212D1786800F09CFB9D
:10176C0003469AB20E4B1A800D4B1A88094B5A80BD
:10177C000C4B01221A70084B01221A7000E000BFBA
:10178C000837BD4680BD00BF18060020002401406C
:10179C001A06002024060020C00200200028014068
:1017AC001C0600201F06002080B582B000AF7860B8
:1017BC007B681B68224A934219D1224B1B88013348
:1017CC009AB2204B1A80204B1B78012B05D11D4B54
:1017DC001B882D2B01D1FFF74DFF1B4B1B78022BC8
:1017EC0005D1184B1B885A2B01D1FFF767FF7B687B
:1017FC001B68164A934211D1154B1B6800225A6282
:10180C00144B1B680133134A1360124B1B684EF6C2
:10181C005F22934202D90F4B00221A607B681B682F
:10182C00B3F1804F07D101210B4801F018F90B4B94
:10183C001B6800225A6200BF0837BD4680BD00BF3E
:10184C00000800402006002018060020002C014053
:10185C00580100203400002000080140A0010020A5
:10186C000C480D490D4A002302E0D458C4500433EF
:10187C00C4188C42F9D30A4A0A4C002301E01360C5
:10188C000432A242FBD3FFF747FB03F013FEFEF733
:10189C003DFD704700000020140000209455000806
:1018AC0014000020640B0020FEE7000080B500AFA0
:1018BC00084B1B68074A43F010031360032000F029
:1018CC0027FE0F2000F008F8FFF7AAF800231846AF
:1018DC0080BD00BF0020024080B582B000AF7860B0
:1018EC00124B1A68124B1B7819464FF47A73B3FBE0
:1018FC00F1F3B2FBF3F3184600F03FFE0346002B66
:10190C0001D001230EE07B680F2B0AD800227968E6
:10191C004FF0FF3000F007FE064A7B68136000238F
:10192C0000E0012318460837BD4680BD00000020AA
:10193C00100000200C00002080B400AF054B1B7879
:10194C001A46054B1B681344034A136000BFBD467F
:10195C0080BC7047100000202806002080B400AF27
:10196C00024B1B681846BD4680BC704728060020F9
:10197C0080B586B000AF78600023FB7500233B6117
:10198C000023BB600023FB607B68002B01D101238B
:10199C00BEE07B689B68002B7B689B6A002B09D19F
:1019AC007B680022DA627B68002283F82420786846
:1019BC00FFF768F8786800F095FC0346FB757B68C8
:1019CC009B6A03F01003002B40F09980FB7D002BE9
:1019DC0040F095807B689B6A23F4885323F00203C4
:1019EC0043F002027B689A627B685A687B68DB6909
:1019FC001A437B681B7B5B001343BA681343BB60C1
:101A0C007B689B68B3F5807F03D07B689B68012B58
:101A1C0002D14FF4807300E000233A6913433B6119
:101A2C007B681B7D012B19D17B681B7B002B09D19B
:101A3C007B689B69013B5A033B69134343F4006386
:101A4C003B610BE07B689B6A43F020027B689A62E7
:101A5C007B68DB6A43F001027B68DA627B681B6897
:101A6C005B6823F469417B681B683A690A435A60D6
:101A7C007B681B689A68284B13407A681268B968AF
:101A8C000B4393607B689B68B3F5807F03D07B68C6
:101A9C009B68012B04D17B681B69013B1B05FB6018
:101AAC007B681B68DB6A23F470017B681B68FA682F
:101ABC000A43DA627B681B689A68184B1340BA6851
:101ACC009A420BD17B680022DA627B689B6A23F016
:101ADC00030343F001027B689A6218E07B689B6AFF
:101AEC0023F0120343F010027B689A627B68DB6A76
:101AFC0043F001027B68DA620123FB7507E07B6827
:101B0C009B6A43F010027B689A620123FB75FB7D94
:101B1C0018461837BD4680BDFDF7E1FFFE0E1FFFCE
:101B2C0090B587B000AF7860396000237B610023EB
:101B3C00FB6000233B61FFF711FF78617B681B683A
:101B4C009B6803F48073002B0BD07B689B6A43F07B
:101B5C0020027B689A627B68002283F82420012390
:101B6C00D3E07B681B685B6803F48073002B31D176
:101B7C007B681B68DB6A03F47003002B2AD121E01D
:101B8C003B68B3F1FF3F1DD03B68002B07D0FFF73C
:101B9C00E5FE02467B69D31A3A689A4212D27B68F8
:101BAC001B681B6803F00203002B0BD17B689B6A3C
:101BBC0043F004027B689A627B68002283F824203D
:101BCC000323A2E07B681B681B6803F00203002B55
:101BDC00D6D070E04F4B1C68022001F037FC034656
:101BEC00B4FBF3F27B681B6819694B4B0B40002B61
:101BFC0018D17B681B68D968484B0B40002B11D15E
:101C0C007B681B681969464B0B40002B08D17B681D
:101C1C001B68D968434B0B40002B01D1142320E0E7
:101C2C0029231EE07B681B6819693D4B0B40002B78
:101C3C0006D17B681B68D9683A4B0B40002B0DD042
:101C4C007B681B681969384B0B40002B08D17B68EB
:101C5C001B68D968344B0B40002B01D1542300E096
:101C6C00FC2302FB03F33B6121E03B68B3F1FF3F34
:101C7C001AD03B68002B07D0FFF770FE02467B6939
:101C8C00D31A3A689A420FD2FB683A699A420BD936
:101C9C007B689B6A43F004027B689A627B68002233
:101CAC0083F82420032330E0FB680133FB60FB68DE
:101CBC003A699A42D9D87B681B686FF012021A6095
:101CCC007B689B6A43F400727B689A627B681B6832
:101CDC009B6803F46023B3F5602F15D17B681B7BE5
:101CEC00002B11D17B689B6A23F480727B689A620B
:101CFC007B689B6A03F48053002B05D17B689B6A3D
:101D0C0043F001027B689A62002318461C37BD46DB
:101D1C0090BD00BF00000020244992242449920069
:101D2C0092244912922449004992240080B584B02F
:101D3C0000AF78600023FB737B6893F82430012B91
:101D4C0001D10223A0E07B68012283F8242078686B
:101D5C0000F06EFA0346FB73FB7B002B40F08F8088
:101D6C007B689B6A23F4706323F0010343F4807255
:101D7C007B689A627B681B68454A934205D1454B48
:101D8C005B6803F47023002B15D17B689B6A23F4EA
:101D9C0080127B689A627B681B685B6803F48063C3
:101DAC00002B26D07B689B6A23F4405343F480526B
:101DBC007B689A621DE07B689B6A43F480127B68A7
:101DCC009A627B681B68334A934204D07B681B6819
:101DDC002F4A93420DD12F4B5B6803F48063002B89
:101DEC0007D07B689B6A23F4405343F480527B6892
:101DFC009A627B689B6A03F48053002B06D07B6845
:101E0C00DB6A23F006027B68DA6202E07B68002260
:101E1C00DA627B68002283F824207B681B686FF0F1
:101E2C0002021A607B681B685A687B681B6842F068
:101E3C0020025A607B681B689B6803F46023B3F52F
:101E4C00602F13D17B681B68114A934205D1114B4B
:101E5C005B6803F47023002B08D17B681B689A68BD
:101E6C007B681B6842F4A0029A600CE07B681B68DC
:101E7C009A687B681B6842F480129A6003E07B6866
:101E8C00002283F82420FB7B18461037BD4680BD0A
:101E9C00002801400024014080B483B000AF78607A
:101EAC007B681B68DB6C18460C37BD4680BC7047E2
:101EBC0080B584B000AF78607B681B681B68FB60E2
:101ECC007B681B685B68BB60BB6803F02003002B5E
:101EDC003ED0FB6803F00203002B39D07B689B6A71
:101EEC0003F01003002B05D17B689B6A43F400724E
:101EFC007B689A627B681B689B6803F46023B3F56C
:101F0C00602F1DD17B681B7B002B19D17B681B6854
:101F1C005A687B681B6822F020025A607B689B6AB7
:101F2C0023F480727B689A627B689B6A03F480530B
:101F3C00002B05D17B689B6A43F001027B689A6297
:101F4C007868FFF7E9FB7B681B686FF012021A6078
:101F5C00BB6803F08003002B4DD0FB6803F0040337
:101F6C00002B48D07B689B6A03F01003002B05D133
:101F7C007B689B6A43F400527B689A627B681B689F
:101F8C009B6803F4E043B3F5E04F12D07B681B6809
:101F9C005B6803F48063002B25D17B681B689B680E
:101FAC0003F46023B3F5602F1DD17B681B7B002BE2
:101FBC0019D17B681B685A687B681B6822F0800209
:101FCC005A607B689B6A23F480527B689A627B68B8
:101FDC009B6A03F48073002B05D17B689B6A43F0EA
:101FEC0001027B689A62786800F0BDF97B681B6817
:101FFC006FF00C021A60BB6803F04003002B12D088
:10200C00FB6803F00103002B0DD07B689B6A43F443
:10201C0080327B689A62786800F009F87B681B68EC
:10202C006FF001021A6000BF1037BD4680BD80B44E
:10203C0083B000AF786000BF0C37BD4680BC7047E2
:10204C0080B485B000AF786039600023FB73002347
:10205C00BB607B6893F82430012B01D10223DCE0B8
:10206C007B68012283F824203B685B68062B1CD814
:10207C007B681B68596B3B685A6813469B0013447A
:10208C00053B1F2202FA03F3DB4319403B68186837
:10209C003B685A6813469B001344053B00FA03F255
:1020AC007B681B680A435A633CE03B685B680C2BFB
:1020BC001CD87B681B68196B3B685A6813469B00DD
:1020CC001344233B1F2202FA03F3DB4319403B6802
:1020DC0018683B685A6813469B001344233B00FA6C
:1020EC0003F27B681B680A431A631BE07B681B685E
:1020FC00D96A3B685A6813469B001344413B1F2224
:10210C0002FA03F3DB4319403B6818683B685A68D2
:10211C0013469B001344413B00FA03F27B681B6897
:10212C000A43DA623B681B68092B1CD97B681B6865
:10213C00D9683B681A6813465B0013441E3B0722A0
:10214C0002FA03F3DB4319403B6898683B681A6852
:10215C0013465B0013441E3B00FA03F27B681B68BA
:10216C000A43DA6019E07B681B6819693B681A68D6
:10217C0013465B001344072202FA03F3DB431940B6
:10218C003B6898683B681A6813465B00134400FA76
:10219C0003F27B681B680A431A613B681B68102BAF
:1021AC0003D03B681B68112B32D17B681B681D4A1E
:1021BC00934225D17B681B689B6803F40003002BBA
:1021CC0026D17B681B689A687B681B6842F4000206
:1021DC009A603B681B68102B1AD1134B1B68134A6F
:1021EC00A2FB03239A0C13469B0013445B00BB60B9
:1021FC0002E0BB68013BBB60BB68002BF9D107E078
:10220C007B689B6A43F020027B689A620123FB7314
:10221C007B68002283F82420FB7B18461437BD46CC
:10222C0080BC7047002401400000002083DE1B436B
:10223C0080B584B000AF78600023FB600023BB60E6
:10224C007B681B689B6803F00103012B40D07B6803
:10225C001B689A687B681B6842F001029A601F4BEE
:10226C001B681F4AA2FB03239B0CBB6002E0BB68EC
:10227C00013BBB60BB68002BF9D1FFF76FFBF8602B
:10228C001FE0FFF76BFB0246FB68D31A022B18D931
:10229C007B681B689B6803F00103012B11D07B68E2
:1022AC009B6A43F010027B689A627B68DB6A43F09E
:1022BC0001027B68DA627B68002283F82420012308
:1022CC0007E07B681B689B6803F00103012BD8D1E6
:1022DC00002318461037BD4680BD00BF000000200B
:1022EC0083DE1B4380B584B000AF78600023FB60B5
:1022FC007B681B689B6803F00103012B2ED17B6864
:10230C001B689A687B681B6822F001029A60FFF7D1
:10231C0025FBF8601BE0FFF721FB0246FB68D31A94
:10232C00022B14D97B681B689B6803F00103012BFB
:10233C000DD17B689B6A43F010027B689A627B68C4
:10234C00DB6A43F001027B68DA62012307E07B68F9
:10235C001B689B6803F00103012BDCD0002318469B
:10236C001037BD4680BD80B483B000AF786000BF2D
:10237C000C37BD4680BC704780B485B000AF786028
:10238C007B6803F00703FB600C4BDB68BB60BA682F
:10239C004FF6FF031340BB60FB681A02BB68134384
:1023AC0043F0BF6343F40033BB60044ABB68D360A3
:1023BC0000BF1437BD4680BC704700BF00ED00E085
:1023CC0080B400AF044BDB681B0A03F0070318460C
:1023DC00BD4680BC704700BF00ED00E080B483B008
:1023EC0000AF0346FB7197F90730002B0BDBFB7931
:1023FC0003F01F02064997F907305B09012000FA28
:10240C0002F241F8232000BF0C37BD4680BC704758
:10241C0000E100E080B483B000AF03463960FB718B
:10242C0097F90730002B0ADB3B68DAB20C4997F9B5
:10243C0007301201D2B20B4483F800230AE03B6848
:10244C00DAB20849FB7903F00F03043B1201D2B254
:10245C000B441A7600BF0C37BD4680BC704700BFDA
:10246C0000E100E000ED00E080B489B000AFF8605E
:10247C00B9607A60FB6803F00703FB61FB69C3F189
:10248C000703042B28BF0423BB61FB690433062B11
:10249C0002D9FB69033B00E000237B614FF0FF3264
:1024AC00BB6902FA03F3DA43BB681A407B699A40B2
:1024BC004FF0FF317B6901FA03F3D9437B680B4082
:1024CC00134318462437BD4680BC704780B582B094
:1024DC0000AF78607B68013BB3F1807F01D30123AF
:1024EC000FE00A4A7B68013B53600F214FF0FF302D
:1024FC00FFF790FF054B00229A60044B07221A60ED
:10250C00002318460837BD4680BD00BF10E000E030
:10251C0080B582B000AF78607868FFF72DFF00BF00
:10252C000837BD4680BD80B586B000AF0346B960A4
:10253C007A60FB7300237B61FFF742FF78617A6856
:10254C00B9687869FFF790FF024697F90F3011468A
:10255C001846FFF75FFF00BF1837BD4680BD80B53A
:10256C0082B000AF0346FB7197F907301846FFF7AE
:10257C0035FF00BF0837BD4680BD80B582B000AFC7
:10258C0078607868FFF7A2FF034618460837BD4607
:10259C0080BD80B485B000AF78600023FB737B688E
:1025AC0093F82130DBB2022B08D07B6804229A63AB
:1025BC007B68002283F82020012320E07B681B68C5
:1025CC001A687B681B6822F00E021A607B681B6815
:1025DC001A687B681B6822F001021A607B681A6C0F
:1025EC007B68DB6B012101FA02F25A607B680122E5
:1025FC0083F821207B68002283F82020FB7B18467F
:10260C001437BD4680BC704780B584B000AF78608D
:10261C000023FB737B6893F82130DBB2022B05D0CF
:10262C007B6804229A630123FB7351E07B681B686F
:10263C001A687B681B6822F00E021A607B681B68A4
:10264C001A687B681B6822F001021A607B681B68A1
:10265C00224A934229D07B681B68214A934222D09C
:10266C007B681B681F4A93421AD07B681B681E4A02
:10267C00934212D07B681B681C4A93420AD07B6839
:10268C001B681B4A934202D14FF480130EE04FF0AB
:10269C0080730BE04FF4803308E04FF4805305E077
:1026AC004FF4807302E0102300E00123114A5360C1
:1026BC007B68012283F821207B68002283F820208C
:1026CC007B685B6B002B03D07B685B6B78689847EF
:1026DC00FB7B18461037BD4680BD00BF080002408A
:1026EC001C000240300002404400024058000240EE
:1026FC006C0002400000024080B48BB000AF7860E8
:10270C00396000237B6200233B6269E101227B6A12
:10271C0002FA03F3FB613B681B68FA691340BB6167
:10272C00BA69FB699A4240F058813B685B689A4AE7
:10273C0093425ED0984A934275D8984A934258D0A7
:10274C00964A93426FD8964A934252D0944A9342F7
:10275C0069D8944A93424CD0924A934263D8924A95
:10276C00934246D0904A93425DD8122B2AD8122B12
:10277C0059D801A252F823F0FF270008D9270008E6
:10278C00EB2700082D280008332800083328000800
:10279C0033280008332800083328000833280008A1
:1027AC003328000833280008332800083328000891
:1027BC00332800083328000833280008E1270008D4
:1027CC00F5270008794A934213D02CE03B68DB686C
:1027DC003B6229E03B68DB6804333B6224E03B68E6
:1027EC00DB6808333B621FE03B68DB680C333B6201
:1027FC001AE03B689B68002B02D104233B6213E078
:10280C003B689B68012B05D108233B627B68FA6906
:10281C001A6109E008233B627B68FA695A6103E09C
:10282C0000233B6200E000BFBB69FF2B01D87B6833
:10283C0001E07B6804337B61BB69FF2B02D87B6AA8
:10284C009B0002E07B6A083B9B003B617B691A683A
:10285C000F213B6901FA03F3DB431A40396A3B69E8
:10286C0001FA03F31A437B691A603B685B6803F057
:10287C008053002B00F0B1804D4B9B694C4A43F0C8
:10288C00010393614A4B9B6903F00103BB60BB6876
:10289C00484A7B6A9B08023352F82330FB607B6A00
:1028AC0003F003039B000F2202FA03F3DB43FA68E5
:1028BC001340FB607B68404A934213D07B683F4ACD
:1028CC0093420DD07B683E4A934207D07B683D4AC9
:1028DC00934201D1032306E0042304E0022302E027
:1028EC00012300E000237A6A02F003029200934075
:1028FC00FA681343FB602F497B6A9B080233FA6822
:10290C0041F823203B685B6803F48013002B06D04E
:10291C002D4B9A682C49BB6913438B6006E02A4BFC
:10292C009A68BB69DB43284913408B603B685B6842
:10293C0003F40013002B06D0234BDA682249BB6941
:10294C001343CB6006E0204BDA68BB69DB431E49BE
:10295C001340CB603B685B6803F40033002B06D05C
:10296C00194B5A681849BB6913434B6006E0164B68
:10297C005A68BB69DB43144913404B603B685B6886
:10298C0003F48033002B21D00F4B1A680E49BB691E
:10299C0013430B6021E000BF000032100000311027
:1029AC000000221000002110000012100000111075
:1029BC00001002400000014000080140000C0140E2
:1029CC000010014000140140000401400B4B1A6838
:1029DC00BB69DB43094913400B607B6A01337B62A3
:1029EC003B681A687B6A22FA03F3002B7FF48EAEE5
:1029FC0000BF00BF2C37BD4680BC704700040140AF
:102A0C0080B485B000AF78600B467B807B689A6899
:102A1C007B881340002B02D00123FB7301E00023C1
:102A2C00FB73FB7B18461437BD4680BC704780B4E3
:102A3C0083B000AF78600B467B8013467B707B784D
:102A4C00002B03D07A887B681A6103E07B881A0418
:102A5C007B681A6100BF0C37BD4680BC704780B4E0
:102A6C0085B000AF78600B467B807B68DB68FB60D1
:102A7C007A88FB6813401A04FB68D9437B880B40A7
:102A8C001A437B681A6100BF1437BD4680BC70477F
:102A9C0080B582B000AF0346FB80084B5A69FB88B7
:102AAC001340002B06D0054AFB885361FB8818465F
:102ABC0002F036FC00BF0837BD4680BD0004014063
:102ACC0080B586B000AF78607B68002B01D1012304
:102ADC0072E27B681B6803F00103002B00F0878017
:102AEC00924B5B6803F00C03042B0CD08F4B5B6890
:102AFC0003F00C03082B12D18C4B5B6803F480336E
:102B0C00B3F5803F0BD1894B1B6803F40033002BCA
:102B1C006CD07B685B68002B68D101234CE27B682E
:102B2C005B68B3F5803F06D1804B1B687F4A43F44A
:102B3C00803313602EE07B685B68002B0CD17B4BE1
:102B4C001B687A4A23F480331360784B1B68774AEE
:102B5C0023F4802313601DE07B685B68B3F5A02F22
:102B6C000CD1724B1B68714A43F4802313606F4B7A
:102B7C001B686E4A43F4803313600BE06B4B1B688D
:102B8C006A4A23F480331360684B1B68674A23F44A
:102B9C00802313607B685B68002B13D0FEF7DEFE8E
:102BAC00386108E0FEF7DAFE02463B69D31A642B63
:102BBC0001D9032300E25D4B1B6803F40033002BA7
:102BCC00F0D014E0FEF7CAFE386108E0FEF7C6FE4E
:102BDC0002463B69D31A642B01D90323ECE1534B16
:102BEC001B6803F40033002BF0D100E000BF7B68BE
:102BFC001B6803F00203002B63D04C4B5B6803F0A3
:102C0C000C03002B0BD0494B5B6803F00C03082B17
:102C1C001CD1464B5B6803F48033002B16D1434B1D
:102C2C001B6803F00203002B05D07B681B69012B8A
:102C3C0001D00123C0E13D4B1B6823F0F8027B68F7
:102C4C005B69DB00394913430B603AE07B681B6915
:102C5C00002B20D0364B01221A60FEF77FFE386124
:102C6C0008E0FEF77BFE02463B69D31A022B01D922
:102C7C000323A1E12D4B1B6803F00203002BF0D0C2
:102C8C002A4B1B6823F0F8027B685B69DB00274941
:102C9C0013430B6015E0264B00221A60FEF75EFE14
:102CAC00386108E0FEF75AFE02463B69D31A022B44
:102CBC0001D9032380E11D4B1B6803F00203002B99
:102CCC00F0D17B681B6803F00803002B3AD07B68BB
:102CDC009B69002B19D0174B01221A60FEF73EFEA0
:102CEC00386108E0FEF73AFE02463B69D31A022B24
:102CFC0001D9032360E10D4B5B6A03F00203002B47
:102D0C00F0D0012000F0CEFA1CE00A4B00221A6031
:102D1C00FEF724FE38610FE0FEF720FE02463B6909
:102D2C00D31A022B08D9032346E100BF001002403E
:102D3C000000424280044242924B5B6A03F0020361
:102D4C00002BE9D17B681B6803F00403002B00F017
:102D5C00A6800023FB758B4BDB6903F08053002BA3
:102D6C000DD1884BDB69874A43F08053D361854B87
:102D7C00DB6903F08053BB60BB680123FB75824B9E
:102D8C001B6803F48073002B18D17F4B1B687E4AA1
:102D9C0043F480731360FEF7E1FD386108E0FEF741
:102DAC00DDFD02463B69D31A642B01D9032303E1F1
:102DBC00754B1B6803F48073002BF0D07B68DB68C9
:102DCC00012B06D16F4B1B6A6E4A43F00103136251
:102DDC002DE07B68DB68002B0CD16A4B1B6A694ABF
:102DEC0023F001031362674B1B6A664A23F004034A
:102DFC0013621CE07B68DB68052B0CD1614B1B6AF2
:102E0C00604A43F0040313625E4B1B6A5D4A43F055
:102E1C00010313620BE05B4B1B6A5A4A23F001035C
:102E2C001362584B1B6A574A23F0040313627B68E6
:102E3C00DB68002B15D0FEF791FD38610AE0FEF738
:102E4C008DFD02463B69D31A41F28832934201D977
:102E5C000323B1E04B4B1B6A03F00203002BEED0B3
:102E6C0014E0FEF77BFD38610AE0FEF777FD0246C1
:102E7C003B69D31A41F28832934201D903239BE078
:102E8C00404B1B6A03F00203002BEED1FB7D012BA0
:102E9C0005D13C4BDB693B4A23F08053D3617B6803
:102EAC00DB69002B00F08780364B5B6803F00C036A
:102EBC00082B61D07B68DB69022B46D1334B002297
:102ECC001A60FEF74BFD386108E0FEF747FD02463D
:102EDC003B69D31A022B01D903236DE0294B1B68E4
:102EEC0003F00073002BF0D17B681B6AB3F5803FB5
:102EFC0008D1244B5B6823F400327B689B68214922
:102F0C0013434B601F4B5B6823F474127B68196A84
:102F1C007B685B6A0B431B4913434B601B4B0122C1
:102F2C001A60FEF71BFD386108E0FEF717FD02463C
:102F3C003B69D31A022B01D903233DE0114B1B68CB
:102F4C0003F00073002BF0D035E0104B00221A6018
:102F5C00FEF704FD386108E0FEF700FD02463B6910
:102F6C00D31A022B01D9032326E0064B1B6803F06E
:102F7C000073002BF0D11EE07B68DB69012B07D1BD
:102F8C00012319E000100240007000406000424232
:102F9C000B4B5B68FB60FB6803F480327B681B6A3D
:102FAC009A4206D1FB6803F470127B685B6A9A4202
:102FBC0001D0012300E0002318461837BD4680BD20
:102FCC000010024080B584B000AF786039607B6837
:102FDC00002B01D10123D0E06A4B1B6803F00703DF
:102FEC003A689A4210D9674B1B6823F0070265496F
:102FFC003B6813430B60634B1B6803F007033A6891
:10300C009A4201D00123B8E07B681B6803F00203ED
:10301C00002B20D07B681B6803F00403002B05D029
:10302C00594B5B68584A43F4E06353607B681B68F8
:10303C0003F00803002B05D0534B5B68524A43F452
:10304C0060535360504B5B6823F0F0027B689B68C5
:10305C004D4913434B607B681B6803F00103002B45
:10306C0040D07B685B68012B07D1474B1B6803F48E
:10307C000033002B15D101237FE07B685B68022BAA
:10308C0007D1414B1B6803F00073002B09D10123BE
:10309C0073E03D4B1B6803F00203002B01D10123AD
:1030AC006BE0394B5B6823F003027B685B68364945
:1030BC0013434B60FEF752FCF8600AE0FEF74EFC3F
:1030CC000246FB68D31A41F28832934201D903239A
:1030DC0053E02D4B5B6803F00C027B685B689B0034
:1030EC009A42EBD1274B1B6803F007033A689A42CC
:1030FC0010D2244B1B6823F0070222493B68134370
:10310C000B60204B1B6803F007033A689A4201D00E
:10311C00012332E07B681B6803F00403002B08D00A
:10312C00194B5B6823F4E0627B68DB681649134338
:10313C004B607B681B6803F00803002B09D0124B13
:10314C005B6823F460527B681B69DB000E491343F8
:10315C004B6000F021F802460B4B5B681B0903F037
:10316C000F030A49CB5C22FA03F3094A1360094B9B
:10317C001B681846FEF7B0FB002318461037BD46F7
:10318C0080BD00BF00200240001002404C550008DA
:10319C00000000200C00002080B487B000AF00239A
:1031AC00FB600023BB6000237B6100237B6000235A
:1031BC003B611E4B5B68FB60FB6803F00C03042B4C
:1031CC0002D0082B03D027E0194B3B6127E0FB68AA
:1031DC009B0C03F00F03174AD35C7B60FB6803F472
:1031EC008033002B10D0114B5B685B0C03F0010398
:1031FC00114AD35CBB607B680D4A03FB02F2BB68CF
:10320C00B2FBF3F37B6104E07B680C4A02FB03F333
:10321C007B617B693B6102E0054B3B6100BF3B6915
:10322C0018461C37BD4680BC704700BF00100240DA
:10323C0000127A00645500087455000800093D001E
:10324C0080B400AF024B1B681846BD4680BC70476B
:10325C000000002080B500AFFFF7F2FF0246054BDF
:10326C005B681B0A03F007030349CB5C22FA03F3E8
:10327C00184680BD001002405C55000880B500AFB8
:10328C00FFF7DEFF0246054B5B68DB0A03F0070322
:10329C000349CB5C22FA03F3184680BD00100240B0
:1032AC005C55000880B485B000AF78600A4B1B6891
:1032BC000A4AA2FB03235B0A7A6802FB03F3FB6056
:1032CC0000BFFB685A1EFA60002BF9D100BF00BF8B
:1032DC001437BD4680BC704700000020D34D6210EF
:1032EC0080B586B000AF786000233B610023FB60A3
:1032FC007B681B6803F00103002B7DD00023FB755A
:10330C004F4BDB6903F08053002B0DD14C4BDB6929
:10331C004B4A43F08053D361494BDB6903F0805334
:10332C00BB60BB680123FB75464B1B6803F48073C1
:10333C00002B18D1434B1B68424A43F48073136033
:10334C00FEF70CFB386108E0FEF708FB02463B6910
:10335C00D31A642B01D903236DE03A4B1B6803F499
:10336C008073002BF0D0364B1B6A03F44073FB6068
:10337C00FB68002B2ED07B685B6803F44073FA6803
:10338C009A4227D02E4B1B6A23F44073FB602E4BC2
:10339C0001221A602C4B00221A60294AFB68136226
:1033AC00FB6803F00103002B14D0FEF7D7FA386149
:1033BC000AE0FEF7D3FA02463B69D31A41F288328F
:1033CC00934201D9032336E01D4B1B6A03F0020321
:1033DC00002BEED01A4B1B6A23F440727B685B689F
:1033EC00174913430B62FB7D012B05D1144BDB6991
:1033FC00134A23F08053D3617B681B6803F00203EC
:10340C00002B08D00E4B5B6823F440427B689B6812
:10341C000B4913434B607B681B6803F01003002BB4
:10342C0008D0074B5B6823F480027B68DB68044997
:10343C0013434B60002318461837BD4680BD00BFB0
:10344C0000100240007000404004424280B588B039
:10345C0000AF786000237B610023FB6100233B619C
:10346C000023FB600023BB617B68102B0AD07B68B8
:10347C00102B00F28A807B68012B45D07B68022BD5
:10348C0075D082E0464B5B68FB60454B1B6803F0D4
:10349C008073002B7BD0FB689B0C03F00F03414A1D
:1034AC00D35C3B61FB6803F48033002B15D03C4BA1
:1034BC005B685B0C03F001033B4AD35C7B61FB68EC
:1034CC0003F48033002B0DD0384A7B69B2FBF3F246
:1034DC003B6902FB03F3FB6104E03B69344A02FBEA
:1034EC0003F3FB612E4B5B6803F48003B3F5800F91
:1034FC0002D1FB69BB614AE0FB695B002D4AA2FB70
:10350C0003235B08BB6142E0254B1B6AFB60FB6835
:10351C0003F44073B3F5807F08D1FB6803F002031A
:10352C00002B03D04FF40043BB611FE0FB6803F496
:10353C004073B3F5007F09D1194B5B6A03F00203AA
:10354C00002B03D049F64043BB610FE0FB6803F44A
:10355C004073B3F5407F1CD1114B1B6803F400334F
:10356C00002B16D04FF22443BB6112E011E0FFF7A1
:10357C0085FE02460A4B5B689B0B03F00303013389
:10358C005B00B2FBF3F3BB6104E000BF02E000BFE1
:10359C0000E000BFBB6918462037BD4680BD00BFA8
:1035AC0000100240785500088855000800127A0077
:1035BC0000093D00ABAAAAAA80B582B000AF786022
:1035CC007B68002B01D1012376E07B685B6A002BC2
:1035DC0008D17B685B68B3F5827F09D07B680022D9
:1035EC00DA6105E07B6800221A617B6800225A616F
:1035FC007B6800229A627B6893F85130DBB2002B17
:10360C0006D17B68002283F850207868FDF7B0FA69
:10361C007B68022283F851207B681B681A687B68E0
:10362C001B6822F040021A607B685B6803F48272AC
:10363C007B689B6803F404431A437B68DB6803F4E0
:10364C0000631A437B681B6903F002031A437B680F
:10365C005B6903F001031A437B689B6903F40073F5
:10366C001A437B68DB6903F038031A437B681B6AD7
:10367C0003F0800342EA03017B689B6A03F4005267
:10368C007B681B680A431A607B689B691A0C7B6811
:10369C001B6802F004025A607B681B68DA697B685D
:1036AC001B6822F40062DA617B6800225A657B6831
:1036BC00012283F85120002318460837BD4680BDEF
:1036CC0080B487B000AFF860B9607A607B80FB682B
:1036DC0093F85130FB75FB685B683B61FB7D012BFC
:1036EC000CD03B69B3F5827F06D1FB689B68002B3D
:1036FC0002D1FB7D042B01D0022361E0BB68002BBF
:10370C0005D07B68002B02D07B88002B01D10123D4
:10371C0056E0FB6893F85030012B01D102234FE0A7
:10372C00FB68012283F85020FB6893F85130DBB220
:10373C00042B03D0FB68052283F85120FB68002280
:10374C005A65FB68BA681A63FB687A889A86FB68C4
:10375C007A88DA86FB687A689A63FB687A889A8733
:10376C00FB687A88DA87FB68DB68002B06D0FB687D
:10377C00164A1A64FB68164A5A6405E0FB68154A37
:10378C001A64FB68144A5A64FB681B681B6803F0D4
:10379C004003402B07D0FB681B681A68FB681B684A
:1037AC0042F040021A60FB68002283F85020FB684C
:1037BC001B685A68FB681B6842F0E0025A600023E1
:1037CC0018461C37BD4680BC704700BFB33A000892
:1037DC00133B0008EF390008533A000880B588B055
:1037EC0000AF78607B681B685B68FB617B681B685B
:1037FC009B68BB61BB699B0903F00103002B0FD1D4
:10380C00BB6903F00103002B0AD0FB699B0903F091
:10381C000103002B04D07B681B6C78689847BEE0D2
:10382C00BB695B0803F00103002B0AD0FB69DB09C1
:10383C0003F00103002B04D07B685B6C786898471D
:10384C00ADE0BB695B0903F00103002B06D1BB693A
:10385C009B0903F00103002B00F0A180FB695B09BD
:10386C0003F00103002B00F09A80BB699B0903F065
:10387C000103002B23D07B6893F85130DBB2032B70
:10388C0011D07B685B6D43F004027B685A650023A2
:10389C007B617B681B68DB687B617B681B689B6852
:1038AC007B617B690BE000233B617B681B68DB68F9
:1038BC003B617B681B689B683B613B696FE0BB6944
:1038CC005B0903F00103002B14D07B685B6D43F0A4
:1038DC0001027B685A650023FB607B681B689B6850
:1038EC00FB607B681B681A687B681B6822F04002CF
:1038FC001A60FB687B685B6D002B4FD07B681B6884
:10390C005A687B681B6822F0E0025A607B680122CF
:10391C0083F85120FB6903F00203002B04D1FB69EF
:10392C0003F00103002B34D07B681B685A687B685A
:10393C001B6822F003025A607B68DB6C002B11D0F1
:10394C007B68DB6C174A5A637B68DB6C1846FEF7A6
:10395C005BFE0346002B05D07B685B6D43F0400299
:10396C007B685A657B689B6C002B16D07B689B6CC4
:10397C000C4A5A637B689B6C1846FEF745FE03465F
:10398C00002B0AD07B685B6D43F040027B685A6564
:10399C0003E0786801F084FD00E000BF00BF203731
:1039AC00BD4680BDC739000880B483B000AF7860D5
:1039BC0000BF0C37BD4680BC704780B584B000AFEB
:1039CC0078607B685B6AFB60FB680022DA87FB68C7
:1039DC000022DA86F86801F063FD00BF1037BD469F
:1039EC0080BD80B582B000AF78607B681B6803F146
:1039FC000C027B689B6B1278D2B21A707B689B6B43
:103A0C005A1C7B689A637B68DB8F9BB2013B9AB232
:103A1C007B68DA877B68DB8F9BB2002B0FD17B68CE
:103A2C001B685A687B681B6822F060025A607B68CE
:103A3C00DB8E9BB2002B02D1786800F04DF900BFF1
:103A4C000837BD4680BD80B582B000AF78607B681A
:103A5C001A6B7B681B680C3312781A707B681B6BB3
:103A6C005A1C7B681A637B68DB8E9BB2013B9AB253
:103A7C007B68DA867B68DB8E9BB2002B0FD17B6870
:103A8C001B685A687B681B6822F080025A607B684E
:103A9C00DB8F9BB2002B02D1786800F01DF900BFC0
:103AAC000837BD4680BD80B582B000AF78607B68BA
:103ABC001B68DA687B689B6B92B21A807B689B6B85
:103ACC009A1C7B689A637B68DB8F9BB2013B9AB232
:103ADC007B68DA877B68DB8F9BB2002B0FD17B680E
:103AEC001B685A687B681B6822F040025A607B682E
:103AFC00DB8E9BB2002B02D1786800F0EDF800BF92
:103B0C000837BD4680BD80B582B000AF78607B6859
:103B1C001B6B1A887B681B68DA607B681B6B9A1CB2
:103B2C007B681A637B68DB8E9BB2013B9AB27B6825
:103B3C00DA867B68DB8E9BB2002B0FD17B681B680F
:103B4C005A687B681B6822F080025A607B68DB8FA6
:103B5C009BB2002B02D1786800F0BEF800BF08378A
:103B6C00BD4680BD80B588B000AFF860B9603B60E1
:103B7C001346FB71FDF7F2FE0246BB6A9B1A3A68CC
:103B8C001344FB61FDF7EAFEB861394B1B685B011E
:103B9C001B0DFA6902FB03F37B6154E03B68B3F144
:103BAC00FF3F50D0FDF7DAFE0246BB69D31AFA6923
:103BBC009A4202D9FB69002B3DD1FB681B685A68FD
:103BCC00FB681B6822F0E0025A60FB685B68B3F587
:103BDC00827F11D1FB689B68B3F5004F04D0FB6862
:103BEC009B68B3F5806F07D1FB681B681A68FB688C
:103BFC001B6822F040021A60FB689B6AB3F5005FF9
:103C0C000FD1FB681B681A68FB681B6822F4005212
:103C1C001A60FB681B681A68FB681B6842F4005248
:103C2C001A60FB68012283F85120FB68002283F89C
:103C3C005020032317E07B69002B01D10023FB618B
:103C4C007B69013B7B61FB681B689A68BB6813400E
:103C5C00BA689A420CBF01230023DBB21A46FB79E7
:103C6C009A429BD1002318462037BD4680BD00BF29
:103C7C000000002080B586B002AFF860B9607A60B1
:103C8C007B680093BB6801220221F868FFF76AFF8A
:103C9C000346002B07D0FB685B6D43F02002FB68EA
:103CAC005A65032313E07B680093BB6800228021D4
:103CBC00F868FFF757FF0346002B07D0FB685B6DD6
:103CCC0043F02002FB685A65032300E000231846EA
:103CDC001037BD4680BD000080B586B000AF78605F
:103CEC00354B1B68354AA2FB03235B0A642202FB9B
:103CFC0003F33B61FDF732FE78617B681B685A6801
:103D0C007B681B6822F020025A603B69002B06D1AD
:103D1C007B685B6D43F020027B685A6509E03B6968
:103D2C00013B3B617B681B689B6803F00203002B23
:103D3C00EBD07A6964217868FFF79CFF0346002B6F
:103D4C0005D07B685B6D43F020027B685A657B680D
:103D5C009B68002B0AD10023FB607B681B68DB6827
:103D6C00FB607B681B689B68FB60FB687B685B6D1A
:103D7C00002B15D17B6893F85130DBB2042B07D1A3
:103D8C007B68012283F851207868FFF70DFE0EE066
:103D9C007B68012283F85120786801F04DFB06E026
:103DAC007B68012283F85120786801F079FB00BF11
:103DBC001837BD4680BD00BF00000020F119760504
:103DCC0080B582B000AF78607B68002B01D10123F5
:103DDC0041E07B6893F83D30DBB2002B06D17B6869
:103DEC00002283F83C207868FCF750FF7B680222A5
:103DFC0083F83D207B681A687B68043319461046AB
:103E0C0000F0B0FA7B68012283F846207B6801221F
:103E1C0083F83E207B68012283F83F207B680122D7
:103E2C0083F840207B68012283F841207B680122C3
:103E3C0083F842207B68012283F843207B680122AF
:103E4C0083F844207B68012283F845207B6801229B
:103E5C0083F83D20002318460837BD4680BD80B44A
:103E6C0083B000AF78607B681B681A6A41F211134B
:103E7C001340002B0FD17B681B681A6A40F2444335
:103E8C001340002B07D17B681B681A687B681B6882
:103E9C0022F001021A607B68012283F83D20002386
:103EAC0018460C37BD4680BC7047000080B485B006
:103EBC0000AF78607B6893F83D30DBB2012B01D00A
:103ECC0001233AE07B68022283F83D207B681B6863
:103EDC00DA687B681B6842F00102DA607B681B6859
:103EEC00184A93420ED07B681B68B3F1804F09D0FF
:103EFC007B681B68144A934204D07B681B68134A86
:103F0C00934211D17B681B689B6803F00703FB602D
:103F1C00FB68062B10D07B681B681A687B681B68D3
:103F2C0042F001021A6007E07B681B681A687B6824
:103F3C001B6842F001021A60002318461437BD4674
:103F4C0080BC7047002C0140000400400008004079
:103F5C0080B483B000AF78607B681B68DA687B68DC
:103F6C001B6822F00102DA607B681B681A6A41F256
:103F7C0011131340002B0FD17B681B681A6A40F297
:103F8C0044431340002B07D17B681B681A687B687D
:103F9C001B6822F001021A607B68012283F83D2025
:103FAC00002318460C37BD4680BC704780B584B0E2
:103FBC0000AF78607B681B68DB68FB607B681B6804
:103FCC001B69BB60BB6803F00203002B20D0FB68AD
:103FDC0003F00203002B1BD07B681B686FF00202FE
:103FEC001A617B6801221A777B681B689B6903F056
:103FFC000303002B03D0786800F098F905E078688B
:10400C0000F08BF9786800F09AF97B6800221A7737
:10401C00BB6803F00403002B20D0FB6803F00403FF
:10402C00002B1BD07B681B686FF004021A617B6845
:10403C0002221A777B681B689B6903F44073002B80
:10404C0003D0786800F072F905E0786800F065F943
:10405C00786800F074F97B6800221A77BB6803F06B
:10406C000803002B20D0FB6803F00803002B1BD0A7
:10407C007B681B686FF008021A617B6804221A7750
:10408C007B681B68DB6903F00303002B03D07868A3
:10409C0000F04CF905E0786800F03FF9786800F022
:1040AC004EF97B6800221A77BB6803F01003002BD3
:1040BC0020D0FB6803F01003002B1BD07B681B681F
:1040CC006FF010021A617B6808221A777B681B68F4
:1040DC00DB6903F44073002B03D0786800F026F9F9
:1040EC0005E0786800F019F9786800F028F97B6829
:1040FC0000221A77BB6803F00103002B0CD0FB687D
:10410C0003F00103002B07D07B681B686FF00102E2
:10411C001A617868FDF748FBBB6803F08003002B3D
:10412C000CD0FB6803F08003002B07D07B681B6866
:10413C006FF080021A61786800F07FFABB6803F0B8
:10414C004003002B0CD0FB6803F04003002B07D07E
:10415C007B681B686FF040021A61786800F0F8F811
:10416C00BB6803F02003002B0CD0FB6803F020038A
:10417C00002B07D07B681B686FF020021A617868EF
:10418C0000F052FA00BF1037BD4680BD80B584B038
:10419C0000AF786039600023FB737B6893F83C3088
:1041AC00012B01D10223B4E07B68012283F83C206F
:1041BC007B68022283F83D207B681B689B68BB6090
:1041CC00BB6823F07703BB60BB6823F47F43BB6001
:1041DC007B681B68BA689A603B681B68B3F5005F24
:1041EC003ED0B3F5005F00F28780B3F5805F00F03E
:1041FC008680B3F5805F7FD8702B1AD0702B7BD85C
:10420C00602B50D0602B77D8502B3CD0502B73D8D0
:10421C00402B58D0402B6FD8302B64D0302B6BD820
:10422C00202B60D0202B67D8002B5CD0102B5AD0C1
:10423C0062E07B6818683B6899683B685A683B6821
:10424C00DB6800F074F97B681B689B68BB60BB681B
:10425C0043F07703BB607B681B68BA689A604FE0D9
:10426C007B6818683B6899683B685A683B68DB68F0
:10427C0000F05DF97B681B689A687B681B6842F4E8
:10428C0080429A603CE07B6818683B6859683B68E0
:10429C00DB681A4600F0D4F87B681B68502118467E
:1042AC0000F02BF92CE07B6818683B6859683B6878
:1042BC00DB681A4600F0F2F87B681B686021184630
:1042CC0000F01BF91CE07B6818683B6859683B6878
:1042DC00DB681A4600F0B4F87B681B68402118466E
:1042EC0000F00BF90CE07B681A683B681B681946F8
:1042FC00104600F002F903E00123FB7300E000BF5D
:10430C007B68012283F83D207B68002283F83C20E7
:10431C00FB7B18461037BD4680BD80B483B000AF20
:10432C00786000BF0C37BD4680BC704780B483B04A
:10433C0000AF786000BF0C37BD4680BC704780B4BE
:10434C0083B000AF786000BF0C37BD4680BC7047AF
:10435C0080B483B000AF786000BF0C37BD4680BC22
:10436C007047000080B485B000AF786039607B681E
:10437C001B68FB607B682F4A93420BD07B68B3F1C0
:10438C00804F07D07B682C4A934203D07B682B4A22
:10439C00934208D1FB6823F07003FB603B685B68B9
:1043AC00FA681343FB607B68224A93420BD07B680C
:1043BC00B3F1804F07D07B681F4A934203D07B68D0
:1043CC001E4A934208D1FB6823F44073FB603B68A0
:1043DC00DB68FA681343FB60FB6823F080023B68E0
:1043EC005B691343FB607B68FA681A603B689A68E8
:1043FC007B68DA623B681A687B689A627B680D4A54
:10440C00934203D13B681A697B681A637B6801226B
:10441C005A617B681B6903F00103002B05D07B6894
:10442C001B6923F001027B681A6100BF1437BD467B
:10443C0080BC7047002C0140000400400008004084
:10444C0080B487B000AFF860B9607A60FB681B6A13
:10445C007B61FB681B6A23F00102FB681A62FB6834
:10446C009B693B613B6923F0F0033B617B681B015B
:10447C003A6913433B617B6923F00A037B617A69D8
:10448C00BB6813437B61FB683A699A61FB687A6984
:10449C001A6200BF1C37BD4680BC704780B487B021
:1044AC0000AFF860B9607A60FB681B6A7B61FB68DF
:1044BC001B6A23F01002FB681A62FB689B693B6164
:1044CC003B6923F470433B617B681B033A691343DC
:1044DC003B617B6923F0A0037B61BB681B017A699C
:1044EC0013437B61FB683A699A61FB687A691A62CB
:1044FC0000BF1C37BD4680BC704780B485B000AF90
:10450C00786039607B689B68FB60FB6823F0700304
:10451C00FB603A68FB68134343F00703FB607B685E
:10452C00FA689A6000BF1437BD4680BC704780B4EF
:10453C0087B000AFF860B9607A603B60FB689B683D
:10454C007B617B6923F47F437B613B681A027B6848
:10455C001A43BB6813437A6913437B61FB687A691E
:10456C009A6000BF1C37BD4680BC704780B485B0D4
:10457C0000AF786039607B6893F83C30012B01D137
:10458C00022346E07B68012283F83C207B680222F0
:10459C0083F83D207B681B685B68FB607B681B684D
:1045AC009B68BB60FB6823F07003FB603B681B6877
:1045BC00FA681343FB607B681B68FA685A607B6877
:1045CC001B68164A93420ED07B681B68B3F1804F70
:1045DC0009D07B681B68124A934204D07B681B6825
:1045EC00104A93420CD1BB6823F08003BB603B683C
:1045FC005B68BA681343BB607B681B68BA689A60D7
:10460C007B68012283F83D207B68002283F83C20E4
:10461C00002318461437BD4680BC7047002C01405F
:10462C00000400400008004080B483B000AF786004
:10463C0000BF0C37BD4680BC704780B483B000AF60
:10464C00786000BF0C37BD4680BC704780B582B027
:10465C0000AF78607B68002B01D1012342E07B68BE
:10466C0093F84130DBB2002B06D17B68002283F833
:10467C0040207868FCF782FB7B68242283F8412079
:10468C007B681B68DA687B681B6822F40052DA606E
:10469C00786800F0B7FD7B681B681A697B681B683B
:1046AC0022F490421A617B681B685A697B681B680C
:1046BC0022F02A025A617B681B68DA687B681B68E7
:1046CC0042F40052DA607B6800225A647B68202234
:1046DC0083F841207B68202283F842207B680022EB
:1046EC005A63002318460837BD4680BD80B58AB092
:1046FC0002AFF860B9603B601346FB8000237B611E
:10470C00FB6893F84130DBB2202B75D1BB68002BD2
:10471C0002D0FB88002B01D101236EE0FB68002244
:10472C005A64FB68212283F84120FDF717F9786160
:10473C00FB68FA889A84FB68FA88DA84FB689B68C1
:10474C00B3F5805F08D1FB681B69002B04D10023F3
:10475C00FB61BB68BB6103E0BB68FB610023BB6111
:10476C002EE03B6800937B6900228021F86800F002
:10477C001CFB0346002B05D0FB68202283F841204C
:10478C0003233AE0FB69002B0BD1BB691B881A464B
:10479C00FB681B68C2F308025A60BB690233BB6139
:1047AC0007E0FB691A78FB681B685A60FB690133E8
:1047BC00FB61FB68DB8C9BB2013B9AB2FB68DA8431
:1047CC00FB68DB8C9BB2002BCBD13B6800937B69E5
:1047DC0000224021F86800F0E8FA0346002B05D0CF
:1047EC00FB68202283F84120032306E0FB6820228B
:1047FC0083F84120002300E0022318462037BD46F1
:10480C0080BD80B584B000AFF860B9601346FB8002
:10481C00FB6893F84230DBB2202B12D1BB68002B23
:10482C0002D0FB88002B01D101230BE0FB68002296
:10483C001A63FB881A46B968F86800F00FFB034648
:10484C0000E0022318461037BD4680BD80B5BAB0D3
:10485C0000AF78607B681B681B68C7F8E4307B6826
:10486C001B68DB68C7F8E0307B681B685B69C7F8BE
:10487C00DC300023C7F8D8300023C7F8D430D7F881
:10488C00E43003F00F03C7F8D830D7F8D830002B3A
:10489C000FD1D7F8E43003F02003002B09D0D7F860
:1048AC00E03003F02003002B03D0786800F0ECFB21
:1048BC005BE2D7F8D830002B00F0DE80D7F8DC3084
:1048CC0003F00103002B06D1D7F8E03003F490730A
:1048DC00002B00F0D180D7F8E43003F00103002B5B
:1048EC000BD0D7F8E03003F48073002B05D07B6835
:1048FC005B6C43F001027B685A64D7F8E43003F038
:10490C000403002B0BD0D7F8DC3003F00103002B91
:10491C0005D07B685B6C43F002027B685A64D7F865
:10492C00E43003F00203002B0BD0D7F8DC3003F09B
:10493C000103002B05D07B685B6C43F004027B68A1
:10494C005A64D7F8E43003F00803002B11D0D7F8E1
:10495C00E03003F02003002B05D1D7F8DC3003F056
:10496C000103002B05D07B685B6C43F008027B686D
:10497C005A647B685B6C002B00F0F281D7F8E43052
:10498C0003F02003002B08D0D7F8E03003F020030D
:10499C00002B02D0786800F077FB7B681B685B69A2
:1049AC0003F04003002B14BF01230023DBB2C7F834
:1049BC00D4307B685B6C03F00803002B03D1D7F871
:1049CC00D430002B4FD0786800F081FA7B681B68DC
:1049DC005B6903F04003002B41D07B681B681433E8
:1049EC00C7F89C30D7F89C3053E8003FC7F8983094
:1049FC00D7F8983023F04003C7F8D0307B681B6899
:104A0C001433D7F8D020C7F8A820C7F8A430D7F8AB
:104A1C00A410D7F8A82041E80023C7F8A030D7F895
:104A2C00A030002BD9D17B68DB6B002B13D07B68BB
:104A3C00DB6B7E4A5A637B68DB6B1846FDF7E4FD43
:104A4C000346002B16D07B68DB6B5B6B7A68D26BF2
:104A5C00104698470EE0786800F093F90AE0786801
:104A6C0000F08FF906E0786800F08BF97B68002283
:104A7C005A6475E100BF73E17B681B6B012B40F03E
:104A8C004F81D7F8E43003F01003002B00F048817D
:104A9C00D7F8E03003F01003002B00F04181002325
:104AAC00BB607B681B681B68BB607B681B685B68B2
:104ABC00BB60BB687B681B685B6903F04003002B21
:104ACC0000F0B6807B68DB6B1B685B68A7F8BE30B8
:104ADC00B7F8BE30002B00F045817B689B8DB7F892
:104AEC00BE209A4280F03E817B68B7F8BE20DA8502
:104AFC007B68DB6B9B69202B00F088807B681B68D4
:104B0C000C33C7F88830D7F8883053E8003FC7F823
:104B1C008430D7F8843023F48073C7F8B8307B68BE
:104B2C001B680C33D7F8B820C7F89420C7F890301E
:104B3C00D7F89010D7F8942041E80023C7F88C30B0
:104B4C00D7F88C30002BD9D17B681B6814337B676A
:104B5C007B6F53E8003F3B673B6F23F00103C7F8C3
:104B6C00B4307B681B681433D7F8B420C7F88020A6
:104B7C00FB67F96FD7F8802041E80023BB67BB6F58
:104B8C00002BE1D17B681B6814333B663B6E53E80A
:104B9C00003FFB65FB6D23F04003C7F8B0307B682A
:104BAC001B681433D7F8B020FA66BB66B96EFA6E80
:104BBC0041E800237B667B6E002BE3D17B682022CF
:104BCC0083F842207B6800221A637B681B680C33D5
:104BDC00FB64FB6C53E8003FBB64BB6C23F010031D
:104BEC00C7F8AC307B681B680C33D7F8AC20BA65BF
:104BFC007B65796DBA6D41E800233B653B6D002BFD
:104C0C00E3D17B68DB6B1846FDF7C3FC7B680222A3
:104C1C005A637B689A8D7B68DB8D9BB2D31A9BB2EF
:104C2C001946786800F0B6F89CE000BF9F4F00086A
:104C3C007B689A8D7B68DB8D9BB2D31AA7F8CE303C
:104C4C007B68DB8D9BB2002B00F08E80B7F8CE30EA
:104C5C00002B00F089807B681B680C33BB63BB6B3B
:104C6C0053E8003F7B637B6B23F49073C7F8C83029
:104C7C007B681B680C33D7F8C8207A643B64396CAA
:104C8C007A6C41E80023FB63FB6B002BE3D17B6860
:104C9C001B6814337B627B6A53E8003F3B623B6AC0
:104CAC0023F00103C7F8C4307B681B681433D7F8B2
:104CBC00C4203A63FB62F96A3A6B41E80023BB6299
:104CCC00BB6A002BE3D17B68202283F842207B68EF
:104CDC0000221A637B681B680C333B613B6953E809
:104CEC00003FFB60FB6823F01003C7F8C0307B6803
:104CFC001B680C33D7F8C020FA61BB61B969FA693B
:104D0C0041E800237B617B69002BE3D17B680222A5
:104D1C005A63B7F8CE301946786800F03BF823E0B8
:104D2C00D7F8E43003F08003002B09D0D7F8E0303B
:104D3C0003F08003002B03D0786800F03EF914E0F8
:104D4C00D7F8E43003F04003002B0ED0D7F8E03056
:104D5C0003F04003002B08D0786800F07DF904E0E4
:104D6C0000BF02E000BF00E000BFE837BD4680BDD9
:104D7C0080B483B000AF786000BF0C37BD4680BCF8
:104D8C00704780B483B000AF786000BF0C37BD466D
:104D9C0080BC704780B483B000AF78600B467B80DA
:104DAC0000BF0C37BD4680BC704780B586B000AFE5
:104DBC00F860B9603B601346FB713BE03B6AB3F1B2
:104DCC00FF3F37D0FCF7CAFD02463B68D31A3A6A5C
:104DDC009A4202D33B6A002B01D103233AE0FB68D1
:104DEC001B68DB6803F00403002B23D0BB68802B0B
:104DFC0020D0BB68402B1DD0FB681B681B6803F0E0
:104E0C000803082B16D100237B61FB681B681B6809
:104E1C007B61FB681B685B687B617B69F86800F0F1
:104E2C0056F8FB6808225A64FB68002283F840207D
:104E3C0001230FE0FB681B681A68BB681340BA6853
:104E4C009A420CBF01230023DBB21A46FB799A422B
:104E5C00B4D0002318461837BD4680BD80B485B049
:104E6C0000AFF860B9601346FB80FB68BA689A62C1
:104E7C00FB68FA889A85FB68FA88DA85FB68002259
:104E8C005A64FB68222283F84220FB681B69002BC2
:104E9C0007D0FB681B68DA68FB681B6842F48072F9
:104EAC00DA60FB681B685A69FB681B6842F00102F8
:104EBC005A61FB681B68DA68FB681B6842F02002C9
:104ECC00DA60002318461437BD4680BC704780B4A6
:104EDC0095B000AF78607B681B680C337B637B6B91
:104EEC0053E8003F3B633B6B23F49073FB647B689C
:104EFC001B680C33FA6C3A64FB63F96B3A6C41E84F
:104F0C000023BB63BB6B002BE5D17B681B681433A0
:104F1C003B623B6A53E8003FFB61FB6923F00103F2
:104F2C00BB647B681B681433BA6CFA62BB62B96AE7
:104F3C00FA6A41E800237B627B6A002BE5D17B682F
:104F4C001B6B012B19D17B681B680C33FB60FB6856
:104F5C0053E8003FBB60BB6823F010037B647B68A5
:104F6C001B680C337A6CBA617B617969BA6941E868
:104F7C0000233B613B69002BE5D17B68202283F841
:104F8C0042207B6800221A6300BF5437BD4680BCA8
:104F9C00704780B584B000AF78607B685B6AFB605B
:104FAC00FB680022DA85FB680022DA84F868FFF7D8
:104FBC00E8FE00BF1037BD4680BD80B485B000AFA1
:104FCC0078607B6893F84130DBB2212B3ED17B6853
:104FDC009B68B3F5805F14D17B681B69002B10D1E3
:104FEC007B681B6AFB60FB681B881A467B681B6826
:104FFC00C2F308025A607B681B6A9A1C7B681A62AF
:10500C0008E07B681B6A591C7A6811621A787B6805
:10501C001B685A607B68DB8C9BB2013B9BB27A6845
:10502C001946D184002B0FD17B681B68DA687B682A
:10503C001B6822F08002DA607B681B68DA687B6888
:10504C001B6842F04002DA60002300E0022318469D
:10505C001437BD4680BC704780B582B000AF786015
:10506C007B681B68DA687B681B6822F04002DA6098
:10507C007B68202283F841207868FFF779FE0023B3
:10508C0018460837BD4680BD80B58CB000AF78603F
:10509C007B6893F84230DBB2222B40F0AE807B6809
:1050AC009B68B3F5805F17D17B681B69002B13D10C
:1050BC000023FB627B689B6ABB627B681B685B6836
:1050CC009BB2C3F308039AB2BB6A1A807B689B6AD3
:1050DC009A1C7B689A6226E07B689B6AFB620023C1
:1050EC00BB627B689B68B3F5805F07D07B689B686D
:1050FC00002B0AD17B681B69002B06D17B681B68CF
:10510C005B68DAB2FB6A1A7008E07B681B685B6844
:10511C00DBB203F07F03DAB2FB6A1A707B689B6A1E
:10512C005A1C7B689A627B68DB8D9BB2013B9BB2FD
:10513C007A681946D185002B5DD17B681B68DA68CB
:10514C007B681B6822F02002DA607B681B68DA68D7
:10515C007B681B6822F48072DA607B681B685A6972
:10516C007B681B6822F001025A617B68202283F85D
:10517C0042207B6800225A637B681B6B012B35D164
:10518C007B6800221A637B681B680C337B617B692C
:10519C0053E8003F3B613B6923F010037B627B6863
:1051AC001B680C337A6A3A62FB61F9693A6A41E826
:1051BC000023BB61BB69002BE5D17B681B681B68B6
:1051CC0003F01003102B0AD10023FB607B681B68D3
:1051DC001B68FB607B681B685B68FB60FB687B681B
:1051EC009B8D19467868FFF7D5FD02E07868FBF7D0
:1051FC001BF8002302E0002300E00223184630379E
:10520C00BD4680BD80B584B000AF78607B681B68FC
:10521C001B6923F440517B68DA687B681B680A437E
:10522C001A617B689A687B681B691A437B685B69A7
:10523C001343BB607B681B68DB6823F4B05323F01B
:10524C000C037A681268B9680B43D3607B681B68DF
:10525C005B6923F440717B689A697B681B680A431D
:10526C005A617B681B682C4A934203D1FEF706F8FF
:10527C00F86002E0FDF7EEFFF860FA6813469B0059
:10528C0013449A001A447B685B689B00B2FBF3F3EF
:10529C00224AA2FB03235B091901FA6813469B00FF
:1052AC0013449A001A447B685B689B00B2FBF3F2D0
:1052BC001A4BA3FB02035B09642000FB03F3D31A14
:1052CC001B013233154AA2FB03235B0903F0F003E5
:1052DC001944FA6813469B0013449A001A447B68DD
:1052EC005B689B00B2FBF3F20C4BA3FB02035B0964
:1052FC00642000FB03F3D31A1B013233074AA2FBD1
:10530C0003235B0903F00F027B681B680A449A6055
:10531C0000BF1037BD4680BD003801401F85EB51E2
:10532C0080B58AB000AF0346FB8007F1180300225A
:10533C001A605A609A60DA604FF48043BB610223B2
:10534C00FB6100233B6203237B6207F118031946C0
:10535C002048FDF7D1F94FF480511E48FDF750FB62
:10536C000346002B20D11C4B1B78002B0BD01B4B66
:10537C001B78002B07D01A4B1B681A4A1360164B6C
:10538C0000221A7006E0154B1B78002B02D0154B2F
:10539C00154A1A60134B1968144B1A684FF484732E
:1053AC001348FEF78DF911E007F1080300221A608B
:1053BC005A609A60DA604FF48043BB600023FB6054
:1053CC0007F1080319460348FDF796F900BF283783
:1053DC00BD4680BD000C01402D0600202E0600208D
:1053EC00580A0020500A00205C0A0020540A0020B1
:1053FC000001002080B483B000AF0346FB71FB7941
:10540C00002B03D0074B084A1A6005E0074B084AEB
:10541C001A60044B074A1A6000BF0C37BD4680BCAB
:10542C00704700BF540A002048090020500A002091
:10543C00400800203006002080B582B000AF7860B4
:10544C007B681B68114A93421BD1114B1B78002BB4
:10545C0003D00F4B00221A700EE00D4B01221A7074
:10546C000C4A0D4B104619464FF484731A4600F043
:10547C0045F80A4B01221A70054B1B781846FFF7AA
:10548C00B9FF00BF0837BD4680BD00BF00380040E3
:10549C002E06002038070020300600202C060020A5
:1054AC0080B483B000AF786000BF0C37BD4680BCC1
:1054BC007047000070B500260C4D0D4C641BA410F9
:1054CC00A64209D100F030F800260A4D0A4C641BA4
:1054DC00A410A64205D170BD55F8043B984701367F
:1054EC00EEE755F8043B98470136F2E78C55000877
:1054FC008C5500088C550008905500080A449142C0
:10550C0000F1FF3300D1704710B511F8014B9142F7
:10551C0003F8014FF9D110BD03460244934200D168
:10552C00704703F8011BF9E7F8B500BFF8BC08BCDD
:10553C009E467047F8B500BFF8BC08BC9E46704745
:10554C000000000000000000010203040607080927
:10555C000000000001020304020304050607080909
:10556C000A0B0C0D0E0F10100102000002030405B3
:10557C00060708090A0B0C0D0E0F10100102000093
:04558C0031010008E1
:045590000D01000801
:105594000024F400FFFFFF00FFFF000010000000E4
:0455A4000100000002
:040000050800186D6A
:00000001FF
