:020000040800F2
:100000000050002021230008DD210008E321000822
:10001000E9210008EF210008F52100080000000098
:10002000000000000000000000000000FB210008AC
:100030000722000800000000132200081F22000809
:100040006923000869230008692300086923000860
:100050006923000869230008692300086923000850
:100060006923000869230008692300086923000840
:100070006923000869230008692300086923000830
:1000800069230008692300082D220008692300085D
:100090006923000869230008692300086923000810
:1000A0006923000869230008692300086923000800
:1000B000492200085D220008712200086923000817
:1000C00069230008692300086923000869230008E0
:1000D00085220008692300086923000869230008B5
:1000E0009922000869230008692300080000000025
:1000F0000000000000000000000000000000000000
:0C01000000000000000000005FF808F1A3
:1001100010B5054C237833B9044B13B10448AFF341
:1001200000800123237010BD80000020000000002B
:10013000C082000808B5034B1BB103490348AFF365
:10014000008008BD0000000084000020C08200087C
:10015000034613F8012B002AFBD1181A0138704707
:1001600081F0004102E000BF83F0004330B54FEA68
:1001700041044FEA430594EA050F08BF90EA020FD5
:100180001FBF54EA000C55EA020C7FEA645C7FEA68
:10019000655C00F0E2804FEA5454D4EB5555B8BF8B
:1001A0006D420CDD2C4480EA020281EA030382EAFC
:1001B000000083EA010180EA020281EA0303362D8E
:1001C00088BF30BD11F0004F4FEA01314FF4801C61
:1001D0004CEA113102D0404261EB410113F0004F73
:1001E0004FEA03334CEA133302D0524263EB43032A
:1001F00094EA050F00F0A780A4F10104D5F1200EC8
:100200000DDB02FA0EFC22FA05F2801841F1000122
:1002100003FA0EF2801843FA05F359410EE0A5F1F6
:1002200020050EF1200E012A03FA0EFC28BF4CF027
:10023000020C43FA05F3C01851EBE37101F00045DD
:1002400007D54FF0000EDCF1000C7EEB00006EEBEA
:100250000101B1F5801F1BD3B1F5001F0CD3490874
:100260005FEA30004FEA3C0C04F101044FEA4452CB
:1002700012F5800F80F09A80BCF1004F08BF5FEA52
:10028000500C50F1000041EB045141EA050130BD32
:100290005FEA4C0C404141EB0101013C28BFB1F544
:1002A000801FE9D291F0000F04BF01460020B1FA8F
:1002B00081F308BF2033A3F10B03B3F120020CDA62
:1002C0000C3208DD02F1140CC2F10C0201FA0CF040
:1002D00021FA02F10CE002F11402D8BFC2F1200CA5
:1002E00001FA02F120FA0CFCDCBF41EA0C0190405B
:1002F000E41AA2BF01EB0451294330BD6FEA0404A4
:100300001F3C1CDA0C340EDC04F11404C4F120028E
:1003100020FA04F001FA02F340EA030021FA04F3A0
:1003200045EA030130BDC4F10C04C4F1200220FAF7
:1003300002F001FA04F340EA0300294630BD21FA35
:1003400004F0294630BD94F0000F83F4801306BFFB
:1003500081F480110134013D4EE77FEA645C18BFEF
:100360007FEA655C29D094EA050F08BF90EA020F86
:1003700005D054EA000C04BF1946104630BD91EA7E
:10038000030F1EBF0021002030BD5FEA545C05D181
:100390004000494128BF41F0004130BD14F58004C0
:1003A0003CBF01F5801130BD01F0004545F0FE4134
:1003B00041F470014FF0000030BD7FEA645C1ABF69
:1003C000194610467FEA655C1CBF0B46024650EAA0
:1003D000013406BF52EA033591EA030F41F40021CC
:1003E00030BD00BF90F0000F04BF0021704730B552
:1003F0004FF4806404F132044FF000054FF0000127
:1004000050E700BF90F0000F04BF0021704730B5E7
:100410004FF4806404F1320410F0004548BF4042BC
:100420004FF000013EE700BF42004FEAE2014FEA11
:1004300031014FEA02701FBF12F07F4393F07F4FEC
:1004400081F06051704732F07F4208BF704793F0EF
:100450007F4F04BF41F40021704730B54FF4607402
:1004600001F0004521F000411CE700BF50EA010205
:1004700008BF704730B54FF000050AE050EA0102AE
:1004800008BF704730B511F0004502D5404261EB1E
:1004900041014FF4806404F132045FEA915C3FF45F
:1004A000D8AE4FF003025FEADC0C18BF03325FEAFC
:1004B000DC0C18BF033202EBDC02C2F1200300FAAD
:1004C00003FC20FA02F001FA03FE40EA0E0021FAD2
:1004D00002F11444BDE600BF70B54FF0FF0C4CF4C0
:1004E000E06C1CEA11541DBF1CEA135594EA0C0F72
:1004F00095EA0C0F00F0DEF82C4481EA030621EAAD
:100500004C5123EA4C5350EA013518BF52EA0335E7
:1005100041F4801143F4801338D0A0FB02CE4FF099
:100520000005E1FB02E506F00042E0FB03E54FF0C9
:100530000006E1FB03569CF0000F18BF4EF0010EC1
:10054000A4F1FF04B6F5007F64F5407404D25FEABD
:100550004E0E6D4146EB060642EAC62141EA555170
:100560004FEAC52040EA5E504FEACE2EB4F1FD0CB2
:1005700088BFBCF5E06F1ED8BEF1004F08BF5FEA30
:10058000500E50F1000041EB045170BD06F00046E2
:1005900046EA010140EA020081EA0301B4EB5C048F
:1005A000C2BFD4EB0C0541EA045170BD41F4801187
:1005B0004FF0000E013C00F3AB8014F1360FDEBFAC
:1005C000002001F0004170BDC4F10004203C35DA88
:1005D0000C341BDC04F11404C4F1200500FA05F30B
:1005E00020FA04F001FA05F240EA020001F00042AC
:1005F00021F0004110EBD37021FA04F642EB060122
:100600005EEA430E08BF20EAD37070BDC4F10C044B
:10061000C4F1200500FA04F320FA05F001FA04F20F
:1006200040EA020001F0004110EBD37041F10001FB
:100630005EEA430E08BF20EAD37070BDC4F1200506
:1006400000FA05F24EEA020E20FA04F301FA05F26E
:1006500043EA020321FA04F001F0004121FA04F216
:1006600020EA020000EBD3705EEA430E08BF20EAE6
:10067000D37070BD94F0000F0FD101F00046400020
:1006800041EB010111F4801F08BF013CF7D041EAA2
:10069000060195F0000F18BF704703F000465200A6
:1006A00043EB030313F4801F08BF013DF7D043EA77
:1006B0000603704794EA0C0F0CEA135518BF95EA2D
:1006C0000C0F0CD050EA410618BF52EA4306D1D1B4
:1006D00081EA030101F000414FF0000070BD50EAD3
:1006E000410606BF1046194652EA430619D094EA5D
:1006F0000C0F02D150EA013613D195EA0C0F05D147
:1007000052EA03361CBF104619460AD181EA03019A
:1007100001F0004141F0FE4141F470014FF0000052
:1007200070BD41F0FE4141F4780170BD70B54FF0ED
:10073000FF0C4CF4E06C1CEA11541DBF1CEA13556D
:1007400094EA0C0F95EA0C0F00F0A7F8A4EB05044F
:1007500081EA030E52EA03354FEA013100F0888046
:100760004FEA03334FF0805545EA131343EA12630F
:100770004FEA022245EA111545EA10654FEA0026C4
:100780000EF000419D4208BF964244F1FD0404F57D
:10079000407402D25B084FEA3202B61A65EB0305D9
:1007A0005B084FEA32024FF480104FF4002CB6EB96
:1007B000020E75EB030E22BFB61A754640EA0C0016
:1007C0005B084FEA3202B6EB020E75EB030E22BF56
:1007D000B61A754640EA5C005B084FEA3202B6EB97
:1007E000020E75EB030E22BFB61A754640EA9C0056
:1007F0005B084FEA3202B6EB020E75EB030E22BF26
:10080000B61A754640EADC0055EA060E18D04FEAE3
:10081000051545EA16754FEA06164FEAC30343EA83
:1008200052734FEAC2025FEA1C1CC0D111F4801F50
:100830000BD141EA00014FF000004FF0004CB6E749
:1008400011F4801F04BF01430020B4F1FD0C88BFE8
:10085000BCF5E06F3FF6AFAEB5EB030C04BFB6EBF3
:10086000020C5FEA500C50F1000041EB045170BDE6
:100870000EF0004E4EEA113114EB5C04C2BFD4EB13
:100880000C0541EA045170BD41F480114FF0000E97
:10089000013C90E645EA060E8DE60CEA135594EA13
:1008A0000C0F08BF95EA0C0F3FF43BAF94EA0C0F16
:1008B0000AD150EA01347FF434AF95EA0C0F7FF48B
:1008C00025AF104619462CE795EA0C0F06D152EADF
:1008D00003353FF4FDAE1046194622E750EA4106C3
:1008E00018BF52EA43067FF4C5AE50EA41047FF4D4
:1008F0000DAF52EA43057FF4EBAE12E74FEA410237
:1009000012F5001215D211D56FF47873B3EB625261
:1009100012D94FEAC12343F0004343EA505311F088
:10092000004F23FA02F018BF404270474FF000001A
:10093000704750EA013005D111F0004008BF6FF058
:10094000004070474FF00000704700BF80B400AF18
:10095000144B00221A80144B00221A80134B4FF6BE
:10096000FF721A80124B00221A80124B00221A705A
:10097000114B00221A70114B00221A70104B4FF6C7
:10098000FF721A800F4B00221A700F4BFF221A7051
:100990000E4B00221A700E4B00221A7000BFBD468B
:1009A00080BC7047BC030020BE0300200000002074
:1009B000C0030020E8030020E9030020EA03002030
:1009C00004000020EF03002002000020ED030020BF
:1009D000EE0300200000000080B582B000AF0346A7
:1009E000FB80B7F906301846FFF70CFD08A3D3E9E2
:1009F0000023FFF771FD02460B4610461946FFF72C
:100A00007DFF03461BB218460837BD4680BD00BFB8
:100A1000713D0AD7A370C53F80B483B000AF0346D1
:100A20000A46FB801346BB80B7F9063040F2D92254
:100A3000934205DDFB88A3F2DA239BB2FB8001E041
:100A40000023FB80BB881F3B9BB2BB807A4BB3F972
:100A500000309BB201339BB21AB2774B1A80774BAE
:100A6000B3F90030B7F906209A421BDDB7F906301A
:100A7000724AB2F900209B1A3B2BCCBF0123002302
:100A8000DBB25AB26E4B93F9003013435AB26C4B3F
:100A90001A706C4B93F90030DBB20133DBB25AB2FF
:100AA000684B1A70644BB3F90030642B40F310822A
:100AB000644B93F90030022B40F30A825F4BB3F989
:100AC0000030B7F906209A4280F202825C4B93F91B
:100AD0000030012B40F0FC815A4B00221A70584B19
:100AE00000221A70584B93F90030052B08DC564B46
:100AF00093F90030DBB20133DBB25AB2524B1A70B9
:100B0000524B00221A7016E0504B93F9003001331B
:100B10004E4A92F9002011464D4A32F913204C4BAF
:100B200023F81120494B93F90030DBB20133DBB2DB
:100B30005AB2464B1A70454B93F90030042BE3DD53
:100B40003E4BB3F90020424B5A81404B00221A70B1
:100B500016E03E4B93F9003001333C4A92F90020F5
:100B600011463C4A32F913203A4B23F81120374BF7
:100B700093F90030DBB20133DBB25AB2334B1A7057
:100B8000324B93F90030042BE3DD324ABB885381AA
:100B90002E4B00221A7016E02C4B93F900300133D3
:100BA0002A4A92F9002011462B4A32F913202A4B87
:100BB00023F81120254B93F90030DBB20133DBB26F
:100BC0005AB2224B1A70214B93F90030042BE3DD0B
:100BD000194BB3F90020204B5A811B4B93F900307D
:100BE000052B01DC002388E1184B00221A707AE003
:100BF0001A4B00221A701A4B00221A70194B00224D
:100C00001A7053E0114B93F900301A46104B33F928
:100C10001220144B93F9003019460D4B33F9113063
:100C20009A4221DA0D4B93F90030DBB20133DBB28B
:100C30005AB20A4B1A7030E0BC03002000000020BA
:100C4000EA030020E9030020E8030020EB03002072
:100C5000C4030020DC030020D0030020ED030020AB
:100C6000EE030020EC030020A64B93F900301A4657
:100C7000A54B33F91220A54B93F900301946A24B2E
:100C800033F911309A4208D1A14B93F90030DBB20D
:100C90000133DBB25AB29E4B1A709C4B93F9003071
:100CA000DBB20133DBB25AB2984B1A70974B93F90F
:100CB0000030062BA6D1974B93F90030022B18D0A9
:100CC000944B93F90030012B04D1914B93F90030F0
:100CD000012B0EDC8B4B93F90030DBB20133DBB21E
:100CE0005AB2884B1A70874B93F90030062B7FF469
:100CF0007FAF844B93F900301A46834B33F91220AF
:100D0000854B1A80854BB3F900301A46844B33F972
:100D10001230322B2BDD834B93F90030022B26DC73
:100D2000814BB3F90030B3F1FF3F20D07A4BB3F9D8
:100D300000301A467C4BB3F90030D31A002BB8BFF1
:100D40005B42B3F5967F12DB764B93F90030DBB252
:100D50000133DBB25AB2734B1A70744B93F9003003
:100D6000DBB2013BDBB25AB2704B1A70C1E06D4B83
:100D700000221A706D4B93F90030052B18DC6B4B79
:100D800093F90030002B13D05E4B93F900301A46D4
:100D9000664B93F90030013B9A4209DA634B93F9B1
:100DA0000030DBB2013BDBB25AB2604B1A70A0E0FC
:100DB000544B93F900205D4B1A70574BB3F9002048
:100DC000594B1A805A4BB3F90030002B14D1524BB7
:100DD000B3F90020524B1A804A4B93F900301A465F
:100DE000544B33F91220544B1A80514B01221A8074
:100DF0004A4B00221A807CE04D4BB3F900309BB285
:100E0000013B9BB21AB24D4B1A8020E04B4BB3F919
:100E100000301A46424B33F912203F4BB3F90030F1
:100E20009A4263D0454BB3F900301A463C4B33F934
:100E30001220394BB3F900309A4211DC3F4BB3F921
:100E400000309BB2013B9BB21AB23C4B1A803B4B29
:100E5000B3F90020314BB3F900309A42D6DA00E002
:100E600000BF364BB3F900301A462C4BB3F90030B3
:100E7000013B9A420AD1294BB3F9002093B20133C6
:100E80009BB219B2254B19802C4B1A802B4BB3F90E
:100E900000300133204AB2F90010214A22F8131021
:100EA000264BB3F900309BB202339BB21AB2204BEF
:100EB0001A80144B93F900301946204BB3F90030D7
:100EC00001331C4A32F911101B4A22F8131010E0AA
:100ED000114BB3F90030B7F906209A4208DA184BE3
:100EE00000221A70174B00221A7002E000BF00E0C7
:100EF00000BF094AFB881380002318460C37BD4603
:100F000080BC7047EB030020C4030020EC030020EA
:100F1000EE030020ED03002000000020C0030020AD
:100F20009C000020EF0300200400002002000020AD
:100F3000BE030020DC0300202C020020C20300209E
:100F4000EA030020E90300202DE9B04382B000AF9E
:100F50008D4BB3F90030042B09DC8C4B00221A8036
:100F60008A4B00225A80894B1B687B60C6E1884B04
:100F700000221A80874B00221A801DE0854BB3F9AE
:100F800000301A46844B33F91220814BB3F90030FC
:100F90009A4208DD7F4BB3F900301A467E4B33F995
:100FA00012207B4B1A807B4BB3F900309BB201338C
:100FB0009BB21AB2774B1A80764BB3F90020724B72
:100FC000B3F900309A42D9DB714BB3F900301846BF
:100FD000FFF718FA4FF00002704BFFF77DFA024658
:100FE0000B4610461946FFF789FC03461AB26C4BB4
:100FF0001A80674BB3F900301846FFF703FA60A375
:10100000D3E90023FFF768FA02460B46104619465B
:10101000FFF774FC03461AB2624B1A805D4B002244
:101020001A8008E05B4BB3F900309BB201339BB2EE
:101030001AB2584B1A80574BB3F90020524BB3F9F0
:1010400000309A420BDA534BB3F900301A46524B38
:1010500033F91220524BB3F900309A42E2DB4D4B88
:10106000B3F90030002B08D14A4BB3F900309BB2E2
:1010700001339BB21AB2474B1A80464BB3F900308A
:10108000013B494A32F913301846FFF7BBF90446D1
:101090000D46404BB3F900301A46434B33F912303A
:1010A00019463C4BB3F90030013B3F4A32F913304B
:1010B000CB1A1846FFF7A6F980468946384BB3F994
:1010C00000301946334BB3F90030013B324A32F954
:1010D0001330CB1A1846FFF795F902460B464046E7
:1010E0004946FFF7F9F902460B4690469946294BC7
:1010F000B3F900301A46284B33F912301946254B04
:10110000B3F90030013B244A32F91330CB1A1846A8
:10111000FFF778F902460B4640464946FFF706FBC3
:1011200002460B4620462946FFF720F802460B46AA
:1011300010461946FFF7E2FB03461AB2134B1A801A
:1011400008E0144BB3F900309BB201339BB21AB2E2
:10115000104B1A800F4BB3F900200B4BB3F9003042
:101160009A422CDA0B4BB3F900301A460A4B33F98A
:101170001220074BB3F900309A42E2DB1FE000BFB8
:10118000333333333333EB3FBE030020F40300200B
:10119000F2030020F00300209C0000200000E03F4C
:1011A000F8030020FA0300202C020020594BB3F969
:1011B00000309BB201339BB21AB2564B1A80554B8A
:1011C000B3F90020544BB3F900309A420BDA514B7B
:1011D000B3F900301A46514B33F91220504BB3F992
:1011E00000309A42E2DC4B4BB3F900204A4BB3F992
:1011F00000309A4208D1474BB3F900309BB2013B13
:101200009BB21AB2434B1A80424BB3F90030013BF8
:10121000444A32F913301846FFF7F4F804460D46F5
:101220003C4BB3F900301A463E4B33F912301946A5
:10123000384BB3F90030013B3A4A32F91330CB1A3C
:101240001846FFF7DFF880468946354BB3F9003082
:101250001946304BB3F90030013B304A32F91330B4
:10126000CB1A1846FFF7CEF802460B4640464946D1
:10127000FFF732F902460B4690469946254BB3F9E3
:1012800000301A46254B33F912301946214BB3F979
:101290000030013B214A32F91330CB1A1846FFF7D0
:1012A000B1F802460B4640464946FFF73FFA024670
:1012B0000B4620462946FEF759FF02460B461046CC
:1012C0001946FFF71BFB03461AB2174B5A80164B01
:1012D000B3F902301846FFF77FFB03461A46124B5C
:1012E0005A80114BB3F900301846FFF775FB0346DF
:1012F0001A460D4B1A800C4B1B687B600023BA8882
:1013000062F30F03FA8862F31F4318460837BD469D
:10131000BDE8B083F0030020BE0300209C00002045
:10132000FA0300202C020020F403002080B500AF57
:101330000C4B00221A700C4B00221A7000224FF442
:1013400000410A4802F03BFD00224FF4804107486B
:1013500002F035FD064804F0F7FB064804F0F4FB04
:1013600000BF80BD02040020FC03002000100140EB
:10137000AC0500206405002080B500AF064B1B784B
:10138000002B06D1054B00221A70FFF7DFFA00F0A0
:1013900069F800BF80BD00BFFC03002002040020EC
:1013A00080B500AF034B1B78002B01D000F0B6F8DE
:1013B00000BF80BDFC03002080B500AF234B1B782D
:1013C000002B40D0224B93F90030012B37D11F4B1B
:1013D0001B78012B02D0022B09D020E01D4B1B886B
:1013E00040F2F632934217D900F074F814E01A4B29
:1013F0001B881BB2174A128812B211461846FFF713
:101400000BFB144B1B88B3F5957F07D8134B0122B8
:101410001A7000F083F801E000BF00E000BF0B4B42
:101420001B78022B0BD1642302220A490C4805F0D9
:10143000E9FA642302220849094805F0E3FA044B5B
:1014400000221A7000E000BF80BD00BFFC03002036
:1014500003040020FE0300200004002002040020FA
:10146000F405002080B500AF134B01221A70134B16
:1014700000221A80124804F015FB124804F012FBF7
:10148000114801F055FE64210F4801F04BFD0F4853
:1014900001F04EFE64210D4801F044FD01224FF49D
:1014A00000410B4802F08BFC01224FF480410848B8
:1014B00002F085FC00BF80BDFC0300200404002076
:1014C000AC050020640500200C0400203C04002032
:1014D0000010014080B500AF0C4B02221A700C487E
:1014E00004F032FB0B4B00221A80094804F0DAFAB0
:1014F00000224FF40041084802F061FC01224FF441
:101500008041054802F05BFC00BF80BDFC03002069
:10151000AC050020040400200010014080B500AF9D
:10152000234804F011FB234804F00EFB224B002259
:101530001A80224B1B78022B25D1214B1B78002BC4
:1015400021D0FFF701FD642304221E491E4805F047
:1015500059FA1E4B00221A601A4BB3F900301A4692
:101560001A4B1B681343194A1360164BB3F9023028
:101570001A02164B1B681343144A1360134B1B6863
:10158000184600F08BF80D4B00221A700C4B00220D
:101590001A7000224FF400410D4802F010FC0022A6
:1015A0004FF480410A4802F00AFC00BF80BD00BF32
:1015B000AC0500206405002004040020FC0300208A
:1015C00002040020F4030020F40500200804002099
:1015D0000010014080B582B000AF7860124B1B78DC
:1015E000002B1CD07B681B68104A934207D1786897
:1015F00001F054FE03469AB20D4B1A8010E07B684E
:101600001B680C4A93420BD1786801F047FE0346F1
:101610009AB2094B1A80094B01221A7000E000BFF0
:101620000837BD4680BD00BFFC03002000240140F8
:10163000FE030020002801400004002003040020D5
:1016400080B582B000AF78607B681B68104A934217
:1016500019D1104B1B8801339AB20E4B1A800E4BD6
:101660001B78012B05D10B4B1B882D2B01D1FFF7CC
:1016700031FF094B1B78022B05D1064B1B885A2BD7
:1016800001D1FFF74BFF00BF0837BD4680BD00BF4B
:101690000008004004040020FC03002080B582B054
:1016A00000AF78607B689AB2144B1A80144B1B8889
:1016B0009BB21946134B1B785B001A4602230F4856
:1016C00000F02EFF0F4B1B780133DAB20D4B1A706E
:1016D0000C4B1B787F2B09D1094B1B889BB2013324
:1016E0009AB2074B1A80074B00221A700421064851
:1016F00002F07DFB00BF0837BD4680BD40070020DB
:101700003C0700203E0700200008014080B500AFE4
:1017100001F0D0F900F022F800F0A6FA00F02CF960
:1017200000F078FA00F0F2F800F0D6F900F072F864
:1017300000F0AEF800F052F900F01CFA06F00EF8D6
:10174000054B1B78002B04D0034B00221A7005F0C8
:1017500019FEFFF731FEF3E79C07002080B594B037
:1017600000AF07F1280328220021184606F034F9BB
:1017700007F1140300221A605A609A60DA601A6155
:101780003B1D00221A605A609A60DA600123BB6236
:101790004FF48033FB624FF400333B630123BB63A0
:1017A00002237B644FF48033BB644FF4E013FB648B
:1017B00007F12803184602F04BFB0346002B01D02B
:1017C00000F0F8FA0F237B610223BB610023FB6169
:1017D0004FF480633B6200237B6207F11403022114
:1017E000184602F0B7FD0346002B01D000F0E2FAE4
:1017F00002237B604FF40043FB603B1D184602F060
:1018000039FF0346002B01D000F0D4FA00BF503757
:10181000BD4680BD80B584B000AF3B1D00221A607C
:101820005A609A60184B194A1A60174B00229A6046
:10183000154B00221A73144B00221A75124B4FF4E9
:101840000022DA61104B00225A600F4B01221A610C
:101850000D4801F0B5F90346002B01D000F0AAFABB
:1018600001237B600123BB600023FB603B1D194605
:10187000054801F0E7FD0346002B01D000F09AFA7D
:1018800000BF1037BD4680BD0C040020002401407D
:1018900080B584B000AF3B1D00221A605A609A6088
:1018A000184B194A1A60174B00229A60154B0022F8
:1018B0001A73144B00221A75124B4FF40022DA618E
:1018C000104B00225A600F4B01221A610D4801F0A3
:1018D00077F90346002B01D000F06CFA02237B60FD
:1018E0000123BB600023FB603B1D1946054801F046
:1018F000A9FD0346002B01D000F05CFA00BF1037B1
:10190000BD4680BD3C0400200028014080B500AFEA
:10191000174B184A1A60164B4FF482725A60144BD8
:1019200000229A60124B0022DA60114B00221A61E9
:101930000F4B00225A610E4B4FF400729A610C4B10
:101940002822DA610A4B00221A62094B00225A62ED
:10195000074B00229A62064B0A22DA62044802F020
:10196000F5FF0346002B01D000F024FA00BF80BD34
:101970006C0400200030014080B500AF154B164AC2
:101980001A60144B00225A60124B00229A60114BCD
:101990000022DA600F4B00221A610E4B00225A61BE
:1019A0000C4B4FF400729A610A4B00221A62094BE9
:1019B00000225A62074B00229A62064B0A22DA6220
:1019C000044802F0C3FF0346002B01D000F0F2F9F7
:1019D00000BF80BDC40400200038004080B58EB038
:1019E00000AF07F1280300221A605A609A60DA609B
:1019F00007F1200300221A605A603B1D00221A6082
:101A00005A609A60DA601A615A619A61314B4FF0FC
:101A100080421A602F4B48225A602E4B00229A6057
:101A20002C4B40F2F512DA602A4B00221A61294B46
:101A300000229A61274803F0E5FF0346002B01D0FE
:101A400000F0B8F94FF48053BB6207F12803194640
:101A5000204804F061FB0346002B01D000F0AAF9F6
:101A60001C4804F09FF80346002B01D000F0A2F9B7
:101A70000821184804F0EEF80346002B01D000F0CE
:101A800099F900233B6200237B6207F1200319468A
:101A9000104804F0F7FE0346002B01D000F08AF94D
:101AA00060237B600123BB600223FB6000237B611A
:101AB0003B1D00221946074804F06CFA0346002B30
:101AC00001D000F077F9034800F00CFB00BF383775
:101AD000BD4680BD1C05002080B586B000AF07F173
:101AE000080300221A605A609A60DA603B460022BE
:101AF0001A605A601D4B1E4A1A601C4B48F6A042E1
:101B00005A601A4B00229A60184B0A22DA60174B6F
:101B10004FF480721A61154B00229A61134803F04A
:101B200071FF0346002B01D000F044F94FF48053BD
:101B3000BB6007F1080319460C4804F0EDFA0346B0
:101B4000002B01D000F036F930233B6000237B608E
:101B50003B461946054804F095FE0346002B01D08C
:101B600000F028F900BF1837BD4680BD640500208D
:101B70000004004080B586B000AF07F108030022E2
:101B80001A605A609A60DA603B4600221A605A6016
:101B90001E4B1F4A1A601D4B4FF4E1525A601B4BFB
:101BA00000229A60194B42F21072DA60174B4FF420
:101BB00000721A61154B00229A61144803F022FF4B
:101BC0000346002B01D000F0F5F84FF48053BB60C2
:101BD00007F1080319460D4804F09EFA0346002B4E
:101BE00001D000F0E7F820233B6000237B603B46F8
:101BF0001946064804F046FE0346002B01D000F0CB
:101C0000D9F800BF1837BD4680BD00BFAC05002025
:101C10000008004080B500AF114B124A1A60104B0B
:101C20004FF4E1325A600E4B00229A600C4B0022B6
:101C3000DA600B4B00221A61094B0C225A61084BE7
:101C400000229A61064B0022DA61054804F08AFE00
:101C50000346002B01D000F0ADF800BF80BD00BFEF
:101C6000F40500200038014080B588B000AF07F1CE
:101C7000100300221A605A609A60DA60484B9B6930
:101C8000474A43F010039361454B9B6903F01003EF
:101C9000FB60FB68424B9B69414A43F02003936120
:101CA0003F4B9B6903F02003BB60BB683C4B9B69C7
:101CB0003B4A43F004039361394B9B6903F00403EF
:101CC0007B607B68364B9B69354A43F00803936120
:101CD000334B9B6903F008033B603B6800224FF4E1
:101CE0004041304802F06BF8002248F218012E48BB
:101CF00002F065F8002201212C4802F060F84FF450
:101D000040433B6101237B610023BB610223FB61F4
:101D100007F110031946234801F0B6FE48F21803F4
:101D20003B6101237B610023BB610223FB6107F15F
:101D3000100319461C4801F0A7FE01233B61012353
:101D40007B610023BB610223FB6107F1100319468D
:101D5000164801F099FE4FF480533B61144B7B61B0
:101D60000023BB6107F110031946104801F08CFEF7
:101D7000C0233B6100237B610023BB6107F110039B
:101D800019460A4801F080FE00220021282001F0B7
:101D9000CCFD282001F0E5FD00BF2037BD4680BD09
:101DA000001002400010014000080140000C0140FA
:101DB0000000211080B400AF72B600BFFEE7000043
:101DC00080B485B000AF154B9B69144A43F0010302
:101DD0009361124B9B6903F00103BB60BB680F4B1F
:101DE000DB690E4A43F08053D3610C4BDB6903F08F
:101DF00080537B607B680A4B5B68FB60FB6823F069
:101E0000E063FB60FB6843F00073FB60044AFB681F
:101E1000536000BF1437BD4680BC704700100240BD
:101E20000000014080B58AB000AF786007F1180368
:101E300000221A605A609A60DA607B681B68304A38
:101E400093422AD12F4B9B692E4A43F4007393612E
:101E50002C4B9B6903F400737B617B69294B9B6965
:101E6000284A43F004039361264B9B6903F0040363
:101E70003B613B690223BB610323FB6107F118034C
:101E80001946214801F000FE00220021122001F035
:101E90004CFD122001F065FD2EE07B681B681B4A9B
:101EA000934229D1174B9B69164A43F4806393618F
:101EB000144B9B6903F48063FB60FB68114B9B69C7
:101EC000104A43F0040393610E4B9B6903F0040333
:101ED000BB60BB680423BB610323FB6107F11803EC
:101EE0001946094801F0D0FD00220021122001F01E
:101EF0001CFD122001F035FD00BF2837BD4680BD16
:101F00000024014000100240000801400028014068
:101F100080B58AB000AF786007F1180300221A601C
:101F20005A609A60DA607B681B683B4A934230D102
:101F30003A4B9B69394A43F480539361374B9B6911
:101F400003F480537B617B69344B9B69334A43F0D4
:101F500004039361314B9B6903F004033B613B69CC
:101F6000A023BB610223FB6103237B6207F11803FB
:101F700019462B4801F088FD4023BB610023FB611B
:101F800000233B6207F118031946254801F07CFD48
:101F90003EE07B681B68234A934239D11F4BDB69C3
:101FA0001E4A43F48043D3611C4BDB6903F4804336
:101FB000FB60FB68194B9B69184A43F00803936167
:101FC000164B9B6903F00803BB60BB684FF42043CA
:101FD000BB610023FB6100233B6207F11803194634
:101FE000114801F051FD4FF48043BB610223FB61B6
:101FF00003237B6207F1180319460B4801F044FDE7
:1020000000220021242001F090FC242001F0A9FCF2
:1020100000BF2837BD4680BD00300140001002409F
:102020000008014000380040000C014080B586B037
:1020300000AF78607B681B68B3F1804F14D1264BEA
:10204000DB69254A43F00103D361234BDB6903F0CD
:1020500001037B617B69002200211C2001F065FCEB
:102060001C2001F07EFC32E07B681B681B4A934217
:1020700014D1194BDB69184A43F00203D361164BA4
:10208000DB6903F002033B613B69002200211D2054
:1020900001F04BFC1D2001F064FC18E07B681B681C
:1020A0000F4A934213D10C4BDB690B4A43F00403F4
:1020B000D361094BDB6903F00403FB60FB6800227A
:1020C00000211E2001F031FC1E2001F04AFC00BF5F
:1020D0001837BD4680BD00BF00100240000400401C
:1020E0000008004080B588B000AF786007F11003A9
:1020F00000221A605A609A60DA607B681B68B3F14C
:10210000804F17D10D4B9B690C4A43F00403936138
:102110000A4B9B6903F00403FB60FB6801233B61EE
:1021200002237B610223FB6107F110031946044877
:1021300001F0AAFC00BF2037BD4680BD0010024060
:102140000008014080B588B000AF786007F1100347
:1021500000221A605A609A60DA607B681B681C4A29
:10216000934231D11B4B9B691A4A43F480439361DC
:10217000184B9B6903F48043FB60FB68154B9B691C
:10218000144A43F004039361124B9B6903F0040368
:10219000BB60BB684FF400733B6102237B61032388
:1021A000FB6107F1100319460B4801F06DFC4FF479
:1021B00080633B6100237B610023BB6107F1100357
:1021C0001946054801F060FC00BF2037BD4680BDC0
:1021D00000380140001002400008014080B400AF08
:1021E000FEE780B400AFFEE780B400AFFEE780B446
:1021F00000AFFEE780B400AFFEE780B400AF00BFE1
:10220000BD4680BC704780B400AF00BFBD4680BCF7
:10221000704780B400AF00BFBD4680BC704780B53A
:1022200000AF00F08DFC00BF80BD000080B500AFA6
:10223000034801F03FF8034801F03CF800BF80BDBF
:102240000C0400203C04002080B500AF024803F0DD
:10225000B1FD00BF80BD00BF1C05002080B500AFF0
:10226000024803F0A7FD00BF80BD00BF6405002049
:1022700080B500AF024803F09DFD00BF80BD00BFE8
:10228000AC05002080B500AF024803F077F800BF2E
:1022900080BD00BFC404002080B500AF4FF4805063
:1022A00001F0BEFD00BF80BD80B586B000AF786094
:1022B000144A154BD31A7B617B693B61134B1B6836
:1022C000002B02D1114B124A1A60104B1A687B681E
:1022D00013443A699A4207D205F046FB03460C22A2
:1022E0001A604FF0FF3309E0084B1B68FB60074B97
:1022F0001A687B681344054A1360FB681846183750
:10230000BD4680BD005000200004000044070020AE
:10231000F80D002080B400AF00BFBD4680BC704700
:102320000C480D490D4A002302E0D458C450043330
:10233000C4188C42F9D30A4A0A4C002301E0136006
:102340000432A242FBD3FFF7E5FF05F013FBFFF7D2
:10235000DDF970470000002080000020908A00080E
:1023600080000020F40D0020FEE7000080B582B060
:1023700000AF78600B467B807A8841F288337968B9
:10238000034802F067FB00BF0837BD4680BD00BFB1
:102390006C04002080B582B000AF78600B467B8073
:1023A0007A8841F288337968034802F097FC00BFCD
:1023B0000837BD4680BD00BF6C04002080B500AF6B
:1023C00000221021094801F0FAFC094B66221A701C
:1023D000074B99225A7002210548FFF7C7FF0122D7
:1023E0001021024801F0EBFC00BF80BD0008014055
:1023F0008C07002080B500AF00221021084801F0B2
:10240000DEFC084B06221A7001210648FFF7AEFFDA
:1024100001221021024801F0D2FC00BF80BD00BFA4
:10242000000801408C07002080B500AF0022102179
:10243000084801F0C4FC084B04221A700121064828
:10244000FFF794FF01221021024801F0B8FC00BF01
:1024500080BD00BF000801408C07002080B582B01D
:1024600000AF0346FB71002000F002F900BF0837FF
:10247000BD4680BD80B500AF012000F07DFB00228D
:102480001021124801F09BFC114B05221A7001210A
:102490000F48FFF76BFF01210D48FFF77BFF0C4B47
:1024A0001A780C4B83F82020012000F065FB094BC3
:1024B00093F8203003F00103002BECD1012210210E
:1024C000024801F07CFC00BF80BD00BF0008014055
:1024D0008C0700204807002080B500AFFFF7CAFF37
:1024E000FFF788FF002210210B4801F068FC0B4B1E
:1024F000C7221A7001210948FFF738FF0122102175
:10250000054801F05CFCFFF7B5FFFFF78DFF0F20DA
:10251000FFF7A4FF00BF80BD000801408C0700202A
:1025200080B584B000AFF860B9607A603B60394B29
:102530001B881A463B68934202D9364B1B883B6086
:102540007A683B681344334A1288934205D9314B69
:102550001B881A467B68D31A3B602E4B1B881A4691
:10256000BB6802FB03F37A681344BB60FFF782FF8A
:102570000020FFF773FFFFF73DFF002210212648E0
:1025800001F01DFC254B02221A70224BDB7F002B31
:1025900017D0BB681B0EDAB2204B5A70BB681B0CFD
:1025A000DAB21E4B9A70BB681B0ADAB21B4BDA70A8
:1025B000BB68DAB2194B1A7105211848FFF7D6FE2D
:1025C00011E0BB681B0CDAB2144B5A70BB681B0AD3
:1025D000DAB2124B9A70BB68DAB2104BDA7004218F
:1025E0000E48FFF7C3FE3B689BB21946F868FFF739
:1025F000BDFE01221021084801F0E1FBFFF73AFF80
:10260000FFF712FF0F20FFF729FF00BF1037BD466D
:1026100080BD00BF48070020000801408C07002053
:1026200080B582B000AF104B9F221A70002210219B
:102630000E4801F0C4FB01210B48FFF797FE3B1D3C
:1026400003211846FFF7A6FE01221021074801F0DA
:10265000B6FB3B791A047B791B021343BA79134307
:1026600018460837BD4680BD8C0700200008014091
:1026700080B584B000AF0346FB71FFF7D1FFF8606F
:10268000642000F079FAFFF799FE642000F074FAF4
:10269000FB79002B16D04FF4805302225049514849
:1026A00004F0B0F9FA685049504805F09DF94F48D8
:1026B000FDF74EFD03469AB24FF480534B4949480B
:1026C00004F0A0F9FB689BB2FB60494B0022DA776B
:1026D000FB68A3F58043113B092B70D801A252F887
:1026E00023F000BFAF2700089F2700088F270008AE
:1026F0007F2700086F2700085F2700084F27000882
:102700003D270008252700080D270008384B012227
:10271000DA77374B4FF480625A613649334805F017
:1027200063F97DE0324B0122DA77314B4FF40072CE
:102730005A6131492D4805F057F971E02C4B4FF49F
:1027400080725A612D49294805F04EF968E0284BFE
:1027500080225A612A49254805F046F960E0244B59
:1027600040225A612749214805F03EF958E0204BA4
:1027700020225A6124491D4805F036F950E01C4BCF
:1027800010225A612149194805F02EF948E0184BEA
:1027900008225A611E49154805F026F940E0144BFD
:1027A00004225A611B49114805F01EF938E0104B0C
:1027B00002225A6118490D4805F016F930E0174910
:1027C0000A4805F011F90948FDF7C2FC03469AB220
:1027D0004FF480530549034804F014F9D6E000BFD4
:1027E0007C840008F4050020808400086C07002029
:1027F000480700208C840008A4840008BC840008DA
:10280000D4840008EC840008048500081C850008B6
:10281000348500084C850008648500087C85000824
:10282000FB79002B0AD05B48FDF792FC03469AB275
:102830004FF480535749584804F0E4F8574B4FF48D
:1028400080721A80554B4FF480529A60534B5B69EB
:102850001B01524AD360514BDB68504A926802FB1D
:1028600003F34E4A1288B3FBF2F34C4A53604B4BCE
:102870009B681B01494A1361484BDB68474A9268D1
:1028800002FB03F39B0A454A9361FB79002B7DD041
:10289000424B1B881A4642493E4805F0A5F83D4880
:1028A000FDF756FC03469AB24FF4805339493A4833
:1028B00004F0A8F8394B5B681A463A49354805F0E8
:1028C00093F83448FDF744FC03469AB24FF4805322
:1028D0003049314804F096F8304B9B681A4632492B
:1028E0002C4805F081F82B48FDF732FC03469AB2DC
:1028F0004FF480532749284804F084F8274BDB68BD
:102900001A462A49234805F06FF82248FDF720FCB3
:1029100003469AB24FF480531E491F4804F072F8E0
:102920001E4B1B691A4622491A4805F05DF81948E2
:10293000FDF70EFC03469AB24FF480531549164832
:1029400004F060F8154B5B691A461A49114805F006
:102950004BF81048FDF7FCFB03469AB24FF4805346
:102960000C490D4804F04EF80C4B9B691A4612496D
:10297000084805F039F80748FDF7EAFB03469AB224
:102980004FF480530349044804F03CF81037BD4627
:1029900080BD00BF6C070020F40500204807002020
:1029A00090850008A8850008BC85000828840008D8
:1029B000D4850008EC8500080086000880B584B046
:1029C00000AFF860B9607A603B60374B1B881A46ED
:1029D0003B68934202D9344B1B883B607A683B6862
:1029E0001344314A1288934205D92F4B1B881A464B
:1029F0007B68D31A3B602C4B1B881A46BB6802FBD2
:102A000003F37A681344BB60284B0B221A70264BE1
:102A1000DB7F002B1FD0BB681B0EDAB2234B5A7032
:102A2000BB681B0CDAB2214B9A70BB681B0ADAB286
:102A30001E4BDA70BB68DAB21C4B1A711B4B0022BA
:102A40005A71002210211A4801F0B9F906211748DD
:102A5000FFF78CFC19E0BB681B0CDAB2134B5A7001
:102A6000BB681B0ADAB2114B9A70BB68DAB20F4B23
:102A7000DA700E4B00221A71002210210C4801F06E
:102A80009EF905210948FFF771FC3B689BB2194686
:102A9000F868FFF77FFC01221021054801F08FF94B
:102AA00000BF1037BD4680BD480700208C070020BE
:102AB0000008014080B500AF084B1B68074A43F08F
:102AC00010031360032000F025FF0F2000F008F82A
:102AD000FFF776F90023184680BD00BF00200240B2
:102AE00080B582B000AF7860124B1A68124B1B7829
:102AF00019464FF47A73B3FBF1F3B2FBF3F31846C4
:102B000000F03DFF0346002B01D001230EE07B685F
:102B10000F2B0AD8002279684FF0FF3000F005FF34
:102B2000064A7B681360002300E00123184608373B
:102B3000BD4680BD08000020100000200C000020D1
:102B400080B400AF054B1B781A46054B1B68134435
:102B5000034A136000BFBD4680BC704710000020D0
:102B60009807002080B400AF024B1B681846BD4692
:102B700080BC70479807002080B584B000AF7860B3
:102B8000FFF7F0FFB8607B68FB60FB68B3F1FF3FC5
:102B900005D00A4B1B781A46FB681344FB6000BF44
:102BA000FFF7E0FF0246BB68D31AFA689A42F7D8EB
:102BB00000BF00BF1037BD4680BD00BF1000002021
:102BC00080B586B000AF78600023FB7500233B61C1
:102BD0000023BB600023FB607B68002B01D1012335
:102BE000BEE07B689B68002B7B689B6A002B09D149
:102BF0007B680022DA627B68002283F824207868F0
:102C0000FFF710F9786800F06FFD0346FB757B68ED
:102C10009B6A03F01003002B40F09980FB7D002B92
:102C200040F095807B689B6A23F4885323F002036D
:102C300043F002027B689A627B685A687B68DB69B2
:102C40001A437B681B7B5B001343BA681343BB606A
:102C50007B689B68B3F5807F03D07B689B68012B02
:102C600002D14FF4807300E000233A6913433B61C3
:102C70007B681B7D012B19D17B681B7B002B09D145
:102C80007B689B69013B5A033B69134343F4006330
:102C90003B610BE07B689B6A43F020027B689A6291
:102CA0007B68DB6A43F001027B68DA627B681B6841
:102CB0005B6823F469417B681B683A690A435A6080
:102CC0007B681B689A68284B13407A681268B96859
:102CD0000B4393607B689B68B3F5807F03D07B6870
:102CE0009B68012B04D17B681B69013B1B05FB60C2
:102CF0007B681B68DB6A23F470017B681B68FA68D9
:102D00000A43DA627B681B689A68184B1340BA68FA
:102D10009A420BD17B680022DA627B689B6A23F0BF
:102D2000030343F001027B689A6218E07B689B6AA8
:102D300023F0120343F010027B689A627B68DB6A1F
:102D400043F001027B68DA620123FB7507E07B68D0
:102D50009B6A43F010027B689A620123FB75FB7D3E
:102D600018461837BD4680BDFDF7E1FFFE0E1FFF78
:102D700080B584B000AF78600023FB737B6893F864
:102D80002430012B01D1022398E07B68012283F8D3
:102D90002420786800F04EFC0346FB73FB7B002B7D
:102DA00040F087807B689B6A23F4407323F0010323
:102DB00043F480727B689A627B681B68414A934245
:102DC00005D1414B5B6803F47023002B15D17B6860
:102DD0009B6A23F480127B689A627B681B685B683D
:102DE00003F48063002B26D07B689B6A23F4405356
:102DF00043F480527B689A621DE07B689B6A43F4CF
:102E000080127B689A627B681B682F4A934204D0C9
:102E10007B681B682B4A93420DD12B4B5B6803F4F4
:102E20008063002B07D07B689B6A23F4405343F4F4
:102E300080527B689A627B689B6A03F48053002B04
:102E400006D07B68DB6A23F006027B68DA6202E068
:102E50007B680022DA627B68002283F824207B688A
:102E60001B686FF002021A607B681B689B6803F4A2
:102E70006023B3F5602F13D17B681B68114A93421E
:102E800005D1114B5B6803F47023002B08D17B68DC
:102E90001B689A687B681B6842F4A0029A600CE089
:102EA0007B681B689A687B681B6842F480129A6092
:102EB00003E07B68002283F82420FB7B1846103750
:102EC000BD4680BD002801400024014080B584B08B
:102ED00000AF78600023FB737B6893F82430012BEC
:102EE00001D102231AE07B68012283F8242078684C
:102EF00000F0FAFB0346FB73FB7B002B09D17B68D8
:102F00009B6A23F4885323F0010343F001027B689A
:102F10009A627B68002283F82420FB7B18461037D6
:102F2000BD4680BD90B587B000AF786039600023A2
:102F30007B610023FB6000233B61FFF713FE786198
:102F40007B681B689B6803F48073002B0BD07B6845
:102F50009B6A43F020027B689A627B68002283F8B8
:102F600024200123D3E07B681B685B6803F4807333
:102F7000002B31D17B681B68DB6A03F47003002BE4
:102F80002AD121E03B68B3F1FF3F1DD03B68002B05
:102F900007D0FFF7E7FD02467B69D31A3A689A42E9
:102FA00012D27B681B681B6803F00203002B0BD155
:102FB0007B689B6A43F004027B689A627B6800220C
:102FC00083F824200323A2E07B681B681B6803F0BE
:102FD0000203002BD6D070E04F4B1C68022001F09A
:102FE000FFFB0346B4FBF3F27B681B6819694B4B8C
:102FF0000B40002B18D17B681B68D968484B0B40ED
:10300000002B11D17B681B681969464B0B40002BC4
:1030100008D17B681B68D968434B0B40002B01D15A
:10302000142320E029231EE07B681B6819693D4BAF
:103030000B40002B06D17B681B68D9683A4B0B40CC
:10304000002B0DD07B681B681969384B0B40002B97
:1030500008D17B681B68D968344B0B40002B01D129
:10306000542300E0FC2302FB03F33B6121E03B68B7
:10307000B3F1FF3F1AD03B68002B07D0FFF772FD7A
:1030800002467B69D31A3A689A420FD2FB683A69C2
:103090009A420BD97B689B6A43F004027B689A6270
:1030A0007B68002283F82420032330E0FB6801338F
:1030B000FB60FB683A699A42D9D87B681B686FF05D
:1030C00012021A607B689B6A43F400727B689A6202
:1030D0007B681B689B6803F46023B3F5602F15D1F0
:1030E0007B681B7B002B11D17B689B6A23F4807269
:1030F0007B689A627B689B6A03F48053002B05D13E
:103100007B689B6A43F001027B689A620023184641
:103110001C37BD4690BD00BF080000202449922402
:103120002449920092244912922449004992240091
:1031300080B584B000AF78600023FB737B6893F8A0
:103140002430012B01D10223A0E07B68012283F807
:103150002420786800F06EFA0346FB73FB7B002B9B
:1031600040F08F807B689B6A23F4706323F0010337
:1031700043F480727B689A627B681B68454A93427D
:1031800005D1454B5B6803F47023002B15D17B6898
:103190009B6A23F480127B689A627B681B685B6879
:1031A00003F48063002B26D07B689B6A23F4405392
:1031B00043F480527B689A621DE07B689B6A43F40B
:1031C00080127B689A627B681B68334A934204D002
:1031D0007B681B682F4A93420DD12F4B5B6803F429
:1031E0008063002B07D07B689B6A23F4405343F431
:1031F00080527B689A627B689B6A03F48053002B41
:1032000006D07B68DB6A23F006027B68DA6202E0A4
:103210007B680022DA627B68002283F824207B68C6
:103220001B686FF002021A607B681B685A687B6833
:103230001B6842F020025A607B681B689B6803F49D
:103240006023B3F5602F13D17B681B68114A93424A
:1032500005D1114B5B6803F47023002B08D17B6808
:103260001B689A687B681B6842F4A0029A600CE0B5
:103270007B681B689A687B681B6842F480129A60BE
:1032800003E07B68002283F82420FB7B184610377C
:10329000BD4680BD002801400024014080B483B0B9
:1032A00000AF78607B681B68DB6C18460C37BD4646
:1032B00080BC704780B584B000AF78607B681B68C5
:1032C0001B68FB607B681B685B68BB60BB6803F0C6
:1032D0002003002B3ED0FB6803F00203002B39D003
:1032E0007B689B6A03F01003002B05D17B689B6A07
:1032F00043F400727B689A627B681B689B6803F4E6
:103300006023B3F5602F1DD17B681B7B002B19D187
:103310007B681B685A687B681B6822F020025A6031
:103320007B689B6A23F480727B689A627B689B6AE5
:1033300003F48053002B05D17B689B6A43F00102A4
:103340007B689A627868FEF745F97B681B686FF0C6
:1033500012021A60BB6803F08003002B4DD0FB689B
:1033600003F00403002B48D07B689B6A03F0100332
:10337000002B05D17B689B6A43F400527B689A62FC
:103380007B681B689B6803F4E043B3F5E04F12D001
:103390007B681B685B6803F48063002B25D17B6826
:1033A0001B689B6803F46023B3F5602F1DD17B6815
:1033B0001B7B002B19D17B681B685A687B681B68D4
:1033C00022F080025A607B689B6A23F480527B68FB
:1033D0009A627B689B6A03F48073002B05D17B683B
:1033E0009B6A43F001027B689A62786800F0BDF93D
:1033F0007B681B686FF00C021A60BB6803F0400327
:10340000002B12D0FB6803F00103002B0DD07B686A
:103410009B6A43F480327B689A62786800F009F80E
:103420007B681B686FF001021A6000BF1037BD4651
:1034300080BD80B483B000AF786000BF0C37BD465C
:1034400080BC704780B485B000AF786039600023DD
:10345000FB730023BB607B6893F82430012B01D100
:103460000223DCE07B68012283F824203B685B6850
:10347000062B1CD87B681B68596B3B685A6813463F
:103480009B001344053B1F2202FA03F3DB43194060
:103490003B6818683B685A6813469B001344053B19
:1034A00000FA03F27B681B680A435A633CE03B68FE
:1034B0005B680C2B1CD87B681B68196B3B685A68CF
:1034C00013469B001344233B1F2202FA03F3DB4302
:1034D00019403B6818683B685A6813469B001344C0
:1034E000233B00FA03F27B681B680A431A631BE064
:1034F0007B681B68D96A3B685A6813469B00134473
:10350000413B1F2202FA03F3DB4319403B68186872
:103510003B685A6813469B001344413B00FA03F290
:103520007B681B680A43DA623B681B68092B1CD95D
:103530007B681B68D9683B681A6813465B001344B4
:103540001E3B072202FA03F3DB4319403B689868ED
:103550003B681A6813465B0013441E3B00FA03F2F3
:103560007B681B680A43DA6019E07B681B6819698D
:103570003B681A6813465B001344072202FA03F300
:10358000DB4319403B6898683B681A6813465B0048
:10359000134400FA03F27B681B680A431A613B6814
:1035A0001B68102B03D03B681B68112B32D17B6842
:1035B0001B681D4A934225D17B681B689B6803F4F6
:1035C0000003002B26D17B681B689A687B681B6808
:1035D00042F400029A603B681B68102B1AD1134B0F
:1035E0001B68134AA2FB03239A0C13469B00134447
:1035F0005B00BB6002E0BB68013BBB60BB68002BAB
:10360000F9D107E07B689B6A43F020027B689A62ED
:103610000123FB737B68002283F82420FB7B184680
:103620001437BD4680BC70470024014008000020CC
:1036300083DE1B4380B584B000AF78600023FB605D
:103640000023BB607B681B689B6803F00103012BB0
:1036500040D07B681B689A687B681B6842F0010257
:103660009A601F4B1B681F4AA2FB03239B0CBB6085
:1036700002E0BB68013BBB60BB68002BF9D1FFF7E0
:1036800071FAF8601FE0FFF76DFA0246FB68D31A83
:10369000022B18D97B681B689B6803F00103012B80
:1036A00011D07B689B6A43F010027B689A627B684A
:1036B000DB6A43F001027B68DA627B68002283F8F0
:1036C0002420012307E07B681B689B6803F001034B
:1036D000012BD8D1002318461037BD4680BD00BF4E
:1036E0000800002083DE1B4380B584B000AF786003
:1036F0000023FB607B681B689B6803F00103012BC0
:103700002ED17B681B689A687B681B6822F00102D7
:103710009A60FFF727FAF8601BE0FFF723FA0246EA
:10372000FB68D31A022B14D97B681B689B6803F0D3
:103730000103012B0DD17B689B6A43F010027B686B
:103740009A627B68DB6A43F001027B68DA620123DC
:1037500007E07B681B689B6803F00103012BDCD04A
:10376000002318461037BD4680BD80B483B000AF3B
:10377000786000BF0C37BD4680BC704780B485B010
:1037800000AF78607B6803F00703FB600C4BDB68DD
:10379000BB60BA684FF6FF031340BB60FB681A02B8
:1037A000BB68134343F0BF6343F40033BB60044A78
:1037B000BB68D36000BF1437BD4680BC704700BFF4
:1037C00000ED00E080B400AF044BDB681B0A03F09F
:1037D00007031846BD4680BC704700BF00ED00E0FF
:1037E00080B483B000AF0346FB7197F90730002B1C
:1037F0000BDBFB7903F01F02064997F907305B09E1
:10380000012000FA02F241F8232000BF0C37BD4628
:1038100080BC704700E100E080B483B000AF034695
:103820003960FB7197F90730002B0ADB3B68DAB28D
:103830000C4997F907301201D2B20B4483F80023E8
:103840000AE03B68DAB20849FB7903F00F03043B56
:103850001201D2B20B441A7600BF0C37BD4680BCB1
:10386000704700BF00E100E000ED00E080B489B0E7
:1038700000AFF860B9607A60FB6803F00703FB6192
:10388000FB69C3F10703042B28BF0423BB61FB6959
:103890000433062B02D9FB69033B00E000237B6164
:1038A0004FF0FF32BB6902FA03F3DA43BB681A40F8
:1038B0007B699A404FF0FF317B6901FA03F3D943EA
:1038C0007B680B40134318462437BD4680BC7047C5
:1038D00080B582B000AF78607B68013BB3F1807F38
:1038E00001D301230FE00A4A7B68013B53600F219B
:1038F0004FF0FF30FFF790FF054B00229A60044B1A
:1039000007221A60002318460837BD4680BD00BF55
:1039100010E000E080B582B000AF78607868FFF713
:103920002DFF00BF0837BD4680BD80B586B000AF13
:103930000346B9607A60FB7300237B61FFF742FFA7
:1039400078617A68B9687869FFF790FF024697F95D
:103950000F3011461846FFF75FFF00BF1837BD460E
:1039600080BD80B582B000AF0346FB7197F9073088
:103970001846FFF735FF00BF0837BD4680BD80B54C
:1039800082B000AF78607868FFF7A2FF0346184660
:103990000837BD4680BD000080B584B000AF7860B8
:1039A0000023FB737B6893F82130DBB2022B05D038
:1039B0007B6804229A630123FB7351E07B681B68D8
:1039C0001A687B681B6822F00E021A607B681B680D
:1039D0001A687B681B6822F001021A607B681B680A
:1039E000224A934229D07B681B68214A934222D005
:1039F0007B681B681F4A93421AD07B681B681E4A6B
:103A0000934212D07B681B681C4A93420AD07B68A1
:103A10001B681B4A934202D14FF480130EE04FF013
:103A200080730BE04FF4803308E04FF4805305E0DF
:103A30004FF4807302E0102300E00123114A536029
:103A40007B68012283F821207B68002283F82020F4
:103A50007B685B6B002B03D07B685B6B7868984757
:103A6000FB7B18461037BD4680BD00BF08000240F2
:103A70001C00024030000240440002405800024056
:103A80006C0002400000024080B48BB000AF786050
:103A9000396000237B6200233B6269E101227B6A7B
:103AA00002FA03F3FB613B681B68FA691340BB61D0
:103AB000BA69FB699A4240F058813B685B689A4A50
:103AC00093425ED0984A934275D8984A934258D010
:103AD000964A93426FD8964A934252D0944A934260
:103AE00069D8944A93424CD0924A934263D8924AFE
:103AF000934246D0904A93425DD8122B2AD8122B7B
:103B000059D801A252F823F0833B00085D3B00081E
:103B10006F3B0008B13B0008B73B0008B73B00080B
:103B2000B73B0008B73B0008B73B0008B73B0008AD
:103B3000B73B0008B73B0008B73B0008B73B00089D
:103B4000B73B0008B73B0008B73B0008653B0008DF
:103B5000793B0008794A934213D02CE03B68DB683C
:103B60003B6229E03B68DB6804333B6224E03B684E
:103B7000DB6808333B621FE03B68DB680C333B6269
:103B80001AE03B689B68002B02D104233B6213E0E0
:103B90003B689B68012B05D108233B627B68FA696F
:103BA0001A6109E008233B627B68FA695A6103E005
:103BB00000233B6200E000BFBB69FF2B01D87B689C
:103BC00001E07B6804337B61BB69FF2B02D87B6A11
:103BD0009B0002E07B6A083B9B003B617B691A68A3
:103BE0000F213B6901FA03F3DB431A40396A3B6951
:103BF00001FA03F31A437B691A603B685B6803F0C0
:103C00008053002B00F0B1804D4B9B694C4A43F030
:103C1000010393614A4B9B6903F00103BB60BB68DE
:103C2000484A7B6A9B08023352F82330FB607B6A68
:103C300003F003039B000F2202FA03F3DB43FA684D
:103C40001340FB607B68404A934213D07B683F4A35
:103C500093420DD07B683E4A934207D07B683D4A31
:103C6000934201D1032306E0042304E0022302E08F
:103C7000012300E000237A6A02F0030292009340DD
:103C8000FA681343FB602F497B6A9B080233FA688A
:103C900041F823203B685B6803F48013002B06D0B7
:103CA0002D4B9A682C49BB6913438B6006E02A4B65
:103CB0009A68BB69DB43284913408B603B685B68AB
:103CC00003F40013002B06D0234BDA682249BB69AA
:103CD0001343CB6006E0204BDA68BB69DB431E4927
:103CE0001340CB603B685B6803F40033002B06D0C5
:103CF000194B5A681849BB6913434B6006E0164BD1
:103D00005A68BB69DB43144913404B603B685B68EE
:103D100003F48033002B21D00F4B1A680E49BB6986
:103D200013430B6021E000BF00003210000031108F
:103D300000002210000021100000121000001110DD
:103D4000001002400000014000080140000C01404A
:103D50000010014000140140000401400B4B1A68A0
:103D6000BB69DB43094913400B607B6A01337B620B
:103D70003B681A687B6A22FA03F3002B7FF48EAE4D
:103D800000BF00BF2C37BD4680BC70470004014017
:103D900080B485B000AF78600B467B807B689A6802
:103DA0007B881340002B02D00123FB7301E000232A
:103DB000FB73FB7B18461437BD4680BC704780B44C
:103DC00083B000AF78600B467B8013467B707B78B6
:103DD000002B03D07A887B681A6103E07B881A0481
:103DE0007B681A6100BF0C37BD4680BC704780B449
:103DF00085B000AF78600B467B807B68DB68FB603A
:103E00007A88FB6813401A04FB68D9437B880B400F
:103E10001A437B681A6100BF1437BD4680BC7047E7
:103E200080B582B000AF0346FB80084B5A69FB881F
:103E30001340002B06D0054AFB885361FB881846C7
:103E400002F0B4FF00BF0837BD4680BD000401404A
:103E500080B586B000AF78607B68002B01D101236C
:103E600072E27B681B6803F00103002B00F087807F
:103E7000924B5B6803F00C03042B0CD08F4B5B68F8
:103E800003F00C03082B12D18C4B5B6803F48033D6
:103E9000B3F5803F0BD1894B1B6803F40033002B33
:103EA0006CD07B685B68002B68D101234CE27B6897
:103EB0005B68B3F5803F06D1804B1B687F4A43F4B3
:103EC000803313602EE07B685B68002B0CD17B4B4A
:103ED0001B687A4A23F480331360784B1B68774A57
:103EE00023F4802313601DE07B685B68B3F5A02F8B
:103EF0000CD1724B1B68714A43F4802313606F4BE3
:103F00001B686E4A43F4803313600BE06B4B1B68F5
:103F10006A4A23F480331360684B1B68674A23F4B2
:103F2000802313607B685B68002B13D0FEF71AFEBA
:103F3000386108E0FEF716FE02463B69D31A642B8F
:103F400001D9032300E25D4B1B6803F40033002B0F
:103F5000F0D014E0FEF706FE386108E0FEF702FE3E
:103F600002463B69D31A642B01D90323ECE1534B7E
:103F70001B6803F40033002BF0D100E000BF7B6826
:103F80001B6803F00203002B63D04C4B5B6803F00B
:103F90000C03002B0BD0494B5B6803F00C03082B80
:103FA0001CD1464B5B6803F48033002B16D1434B86
:103FB0001B6803F00203002B05D07B681B69012BF3
:103FC00001D00123C0E13D4B1B6823F0F8027B6860
:103FD0005B69DB00394913430B603AE07B681B697E
:103FE000002B20D0364B01221A60FEF7BBFD386152
:103FF00008E0FEF7B7FD02463B69D31A022B01D950
:104000000323A1E12D4B1B6803F00203002BF0D02A
:104010002A4B1B6823F0F8027B685B69DB002749A9
:1040200013430B6015E0264B00221A60FEF79AFD41
:10403000386108E0FEF796FD02463B69D31A022B71
:1040400001D9032380E11D4B1B6803F00203002B01
:10405000F0D17B681B6803F00803002B3AD07B6823
:104060009B69002B19D0174B01221A60FEF77AFDCD
:10407000386108E0FEF776FD02463B69D31A022B51
:1040800001D9032360E10D4B5B6A03F00203002BAF
:10409000F0D0012000F0D0FA1CE00A4B00221A6098
:1040A000FEF760FD38610FE0FEF75CFD02463B69FC
:1040B000D31A022B08D9032346E100BF00100240A7
:1040C0000000424280044242924B5B6A03F00203CA
:1040D000002BE9D17B681B6803F00403002B00F080
:1040E000A6800023FB758B4BDB6903F08053002B0C
:1040F0000DD1884BDB69874A43F08053D361854BF0
:10410000DB6903F08053BB60BB680123FB75824B06
:104110001B6803F48073002B18D17F4B1B687E4A09
:1041200043F480731360FEF71DFD386108E0FEF76D
:1041300019FD02463B69D31A642B01D9032303E11D
:10414000754B1B6803F48073002BF0D07B68DB6831
:10415000012B06D16F4B1B6A6E4A43F001031362B9
:104160002DE07B68DB68002B0CD16A4B1B6A694A27
:1041700023F001031362674B1B6A664A23F00403B2
:1041800013621CE07B68DB68052B0CD1614B1B6A5A
:10419000604A43F0040313625E4B1B6A5D4A43F0BE
:1041A000010313620BE05B4B1B6A5A4A23F00103C5
:1041B0001362584B1B6A574A23F0040313627B684F
:1041C000DB68002B15D0FEF7CDFC38610AE0FEF766
:1041D000C9FC02463B69D31A41F28832934201D9A5
:1041E0000323B1E04B4B1B6A03F00203002BEED01C
:1041F00014E0FEF7B7FC38610AE0FEF7B3FC0246B4
:104200003B69D31A41F28832934201D903239BE0E0
:10421000404B1B6A03F00203002BEED1FB7D012B08
:1042200005D13C4BDB693B4A23F08053D3617B686B
:10423000DB69002B00F08780364B5B6803F00C03D2
:10424000082B61D07B68DB69022B46D1334B0022FF
:104250001A60FEF787FC386108E0FEF783FC02462F
:104260003B69D31A022B01D903236DE0294B1B684C
:1042700003F00073002BF0D17B681B6AB3F5803F1D
:1042800008D1244B5B6823F400327B689B6821498A
:1042900013434B601F4B5B6823F474127B68196AED
:1042A0007B685B6A0B431B4913434B601B4B01222A
:1042B0001A60FEF757FC386108E0FEF753FC02462F
:1042C0003B69D31A022B01D903233DE0114B1B6834
:1042D00003F00073002BF0D035E0104B00221A6081
:1042E000FEF740FC386108E0FEF73CFC02463B6903
:1042F000D31A022B01D9032326E0064B1B6803F0D7
:104300000073002BF0D11EE07B68DB69012B07D125
:10431000012319E00010024000700040600042429A
:104320000B4B5B68FB60FB6803F480327B681B6AA5
:104330009A4206D1FB6803F470127B685B6A9A426A
:1043400001D0012300E0002318461837BD4680BD88
:104350000010024080B584B000AF786039607B689F
:10436000002B01D10123D0E06A4B1B6803F0070347
:104370003A689A4210D9674B1B6823F007026549D7
:104380003B6813430B60634B1B6803F007033A68F9
:104390009A4201D00123B8E07B681B6803F0020356
:1043A000002B20D07B681B6803F00403002B05D092
:1043B000594B5B68584A43F4E06353607B681B6861
:1043C00003F00803002B05D0534B5B68524A43F4BB
:1043D00060535360504B5B6823F0F0027B689B682E
:1043E0004D4913434B607B681B6803F00103002BAE
:1043F00040D07B685B68012B07D1474B1B6803F4F7
:104400000033002B15D101237FE07B685B68022B12
:1044100007D1414B1B6803F00073002B09D1012326
:1044200073E03D4B1B6803F00203002B01D1012315
:104430006BE0394B5B6823F003027B685B683649AD
:1044400013434B60FEF78EFBF8600AE0FEF78AFB31
:104450000246FB68D31A41F28832934201D9032302
:1044600053E02D4B5B6803F00C027B685B689B009C
:104470009A42EBD1274B1B6803F007033A689A4234
:1044800010D2244B1B6823F0070222493B681343D8
:104490000B60204B1B6803F007033A689A4201D077
:1044A000012332E07B681B6803F00403002B08D073
:1044B000194B5B6823F4E0627B68DB6816491343A1
:1044C0004B607B681B6803F00803002B09D0124B7C
:1044D0005B6823F460527B681B69DB000E49134361
:1044E0004B6000F021F802460B4B5B681B0903F0A0
:1044F0000F030A49CB5C22FA03F3094A1360094B04
:104500001B681846FEF7ECFA002318461037BD4624
:1045100080BD00BF00200240001002401486000849
:10452000080000200C00002080B487B000AF0023FA
:10453000FB600023BB6000237B6100237B600023C2
:104540003B611E4B5B68FB60FB6803F00C03042BB4
:1045500002D0082B03D027E0194B3B6127E0FB6812
:104560009B0C03F00F03174AD35C7B60FB6803F4DA
:104570008033002B10D0114B5B685B0C03F0010300
:10458000114AD35CBB607B680D4A03FB02F2BB6837
:10459000B2FBF3F37B6104E07B680C4A02FB03F39C
:1045A0007B617B693B6102E0094B3B6100BF3B697A
:1045B00018461C37BD4680BC704700BF0010024043
:1045C0000024F4002C8600083C86000800093D0009
:1045D00000127A0080B400AF024B1B681846BD463B
:1045E00080BC70470800002080B500AFFFF7F2FFE5
:1045F0000246054B5B681B0A03F007030349CB5CCB
:1046000022FA03F3184680BD0010024024860008F9
:1046100080B500AFFFF7DEFF0246054B5B68DB0AA3
:1046200003F007030349CB5C22FA03F3184680BD6D
:10463000001002402486000880B485B000AF786086
:104640000A4B1B680A4AA2FB03235B0A7A6802FB37
:1046500003F3FB6000BFFB685A1EFA60002BF9D120
:1046600000BF00BF1437BD4680BC70470800002063
:10467000D34D621080B586B000AF786000233B61F7
:104680000023FB607B681B6803F00103002B7DD0D7
:104690000023FB754F4BDB6903F08053002B0DD1DA
:1046A0004C4BDB694B4A43F08053D361494BDB6988
:1046B00003F08053BB60BB680123FB75464B1B684E
:1046C00003F48073002B18D1434B1B68424A43F418
:1046D00080731360FEF746FA386108E0FEF742FA8D
:1046E00002463B69D31A642B01D903236DE03A4B90
:1046F0001B6803F48073002BF0D0364B1B6A03F465
:104700004073FB60FB68002B2ED07B685B6803F472
:104710004073FA689A4227D02E4B1B6A23F44073E9
:10472000FB602E4B01221A602C4B00221A60294A92
:10473000FB681362FB6803F00103002B14D0FEF743
:1047400011FA38610AE0FEF70DFA02463B69D31A06
:1047500041F28832934201D9032336E01D4B1B6A94
:1047600003F00203002BEED01A4B1B6A23F44072B5
:104770007B685B68174913430B62FB7D012B05D1F6
:10478000144BDB69134A23F08053D3617B681B68A9
:1047900003F00203002B08D00E4B5B6823F4404269
:1047A0007B689B680B4913434B607B681B6803F075
:1047B0001003002B08D0074B5B6823F480027B6852
:1047C000DB68044913434B60002318461837BD4685
:1047D00080BD00BF00100240007000404004424213
:1047E00080B588B000AF786000237B610023FB6157
:1047F00000233B610023FB600023BB617B68102B1F
:104800000AD07B68102B00F289807B68012B45D091
:104810007B68022B74D081E0454B5B68FB60444BA6
:104820001B6803F08073002B7AD0FB689B0C03F0AD
:104830000F03404AD35C3B61FB6803F48033002BD9
:1048400015D03B4B5B685B0C03F001033A4AD35C29
:104850007B61FB6803F48033002B0DD0374A7B6902
:10486000B2FBF3F23B6902FB03F3FB6104E03B693B
:10487000334A02FB03F3FB612D4B5B6803F48003B7
:10488000B3F5800F02D1FB69BB6149E0FB695B00B6
:104890002C4AA2FB03235B08BB6141E0244B1B6A4B
:1048A000FB60FB6803F44073B3F5807F08D1FB68BD
:1048B00003F00203002B03D04FF40043BB611EE062
:1048C000FB6803F44073B3F5007F09D1184B5B6AB2
:1048D00003F00203002B03D049F64043BB610EE016
:1048E000FB6803F44073B3F5407F1BD1104B1B688A
:1048F00003F40033002B15D0134BBB6112E011E021
:10490000FFF786FE02460A4B5B689B0B03F003032E
:1049100001335B00B2FBF3F3BB6104E000BF02E0D4
:1049200000BF00E000BFBB6918462037BD4680BD10
:104930000010024040860008508600080024F40061
:1049400000093D00ABAAAAAA48E8010080B582B0E0
:1049500000AF78607B68002B01D1012376E07B6893
:104960005B6A002B08D17B685B68B3F5827F09D056
:104970007B680022DA6105E07B6800221A617B68AF
:1049800000225A617B6800229A627B6893F851305A
:10499000DBB2002B06D17B68002283F850207868B8
:1049A000FDF7B6FA7B68022283F851207B681B680A
:1049B0001A687B681B6822F040021A607B685B689B
:1049C00003F482727B689B6803F404431A437B6898
:1049D000DB6803F400631A437B681B6903F002037E
:1049E0001A437B685B6903F001031A437B689B6988
:1049F00003F400731A437B68DB6903F038031A433E
:104A00007B681B6A03F0800342EA03017B689B6AB0
:104A100003F400527B681B680A431A607B689B6939
:104A20001A0C7B681B6802F004025A607B681B68E2
:104A3000DA697B681B6822F40062DA617B68002215
:104A40005A657B68012283F85120002318460837F5
:104A5000BD4680BD80B588B000AFF860B9603B60EE
:104A60001346FB80FEF77EF8F861FB887B83FB68CA
:104A700093F85130DBB2012B01D002232AE1BB684D
:104A8000002B02D0FB88002B01D1012322E1FB681F
:104A900093F85030012B01D102231BE1FB68012266
:104AA00083F85020FB68032283F85120FB68002222
:104AB0005A65FB68BA681A63FB68FA889A86FB68CD
:104AC000FA88DA86FB6800229A63FB6800229A87DC
:104AD000FB680022DA87FB6800225A64FB68002228
:104AE0001A64FB689B68B3F5004F0FD1FB681B6825
:104AF0001A68FB681B6822F040021A60FB681B689A
:104B00001A68FB681B6842F480421A60FB681B68E5
:104B10001B6803F04003402B07D0FB681B681A6832
:104B2000FB681B6842F040021A60FB68DB68B3F563
:104B3000006F52D1FB685B68002B02D07B8B012B8E
:104B400045D1FB681B6B1A88FB681B68DA60FB6841
:104B50001B6B9A1CFB681A63FB68DB8E9BB2013BE4
:104B60009AB2FB68DA8632E0FB681B689B6803F048
:104B70000203022B12D1FB681B6B1A88FB681B68AF
:104B8000DA60FB681B6B9A1CFB681A63FB68DB8EA0
:104B90009BB2013B9AB2FB68DA8618E0FDF7E2FFB0
:104BA0000246FB69D31A3A689A4203D83B68B3F1CC
:104BB000FF3F02D13B68002B09D1FB68012283F83B
:104BC0005120FB68002283F85020032382E0FB6819
:104BD000DB8E9BB2002BC7D153E0FB685B68002BD8
:104BE00002D07B8B012B47D1FB681A6BFB681B68DB
:104BF0000C3312781A70FB681B6B5A1CFB681A6323
:104C0000FB68DB8E9BB2013B9AB2FB68DA8633E02D
:104C1000FB681B689B6803F00203022B13D1FB683F
:104C20001A6BFB681B680C3312781A70FB681B6BDD
:104C30005A1CFB681A63FB68DB8E9BB2013B9AB27D
:104C4000FB68DA8618E0FDF78DFF0246FB69D31A90
:104C50003A689A4203D83B68B3F1FF3F02D13B6800
:104C6000002B09D1FB68012283F85120FB68002248
:104C700083F8502003232DE0FB68DB8E9BB2002BD2
:104C8000C6D1FA693968F86800F016FE0346002BB1
:104C900002D0FB6820225A65FB689B68002B0AD172
:104CA00000237B61FB681B68DB687B61FB681B681A
:104CB0009B687B617B69FB68012283F85120FB685C
:104CC000002283F85020FB685B6D002B01D001238C
:104CD00000E0002318462037BD4680BD80B588B06F
:104CE00002AFF860B9603B601346FB80FB6893F845
:104CF0005130DBB2012B01D0022304E1FB685B6879
:104D0000B3F5827F12D1FB689B68002B0ED1FB6844
:104D1000042283F85120FA883B6800931346BA684E
:104D2000B968F86800F0F3F80346ECE0FDF71AFF05
:104D30007861BB68002B02D0FB88002B01D10123D6
:104D4000E1E0FB6893F85030012B01D10223DAE057
:104D5000FB68012283F85020FB68042283F851206D
:104D6000FB6800225A65FB68BA689A63FB68FA8898
:104D70009A87FB68FA88DA87FB6800221A63FB6867
:104D800000229A86FB680022DA86FB6800221A64F9
:104D9000FB6800225A64FB689B68B3F5004F0FD193
:104DA000FB681B681A68FB681B6822F040021A60E7
:104DB000FB681B681A68FB681B6822F480421A6053
:104DC000FB681B681B6803F04003402B07D0FB689F
:104DD0001B681A68FB681B6842F040021A60FB6897
:104DE000DB68002B70D135E0FB681B689B6803F023
:104DF0000103012B15D1FB681B6803F10C02FB6852
:104E00009B6B1278D2B21A70FB689B6B5A1CFB68C2
:104E10009A63FB68DB8F9BB2013B9AB2FB68DA872F
:104E200018E0FDF79FFE02467B69D31A3A689A4262
:104E300003D83B68B3F1FF3F02D13B68002B09D197
:104E4000FB68012283F85120FB68002283F8502080
:104E5000032358E0FB68DB8F9BB2002BC4D138E002
:104E6000FB681B689B6803F00103012B13D1FB68EF
:104E70001B68DA68FB689B6B92B21A80FB689B6BBD
:104E80009A1CFB689A63FB68DB8F9BB2013B9AB26A
:104E9000FB68DA8718E0FDF765FE02467B69D31AE6
:104EA0003A689A4203D83B68B3F1FF3F02D13B68AE
:104EB000002B09D1FB68012283F85120FB680022F6
:104EC00083F8502003231EE0FB68DB8F9BB2002B8E
:104ED000C6D17A693968F86800F09CFC0346002B5B
:104EE00002D0FB6820225A65FB68012283F851201A
:104EF000FB68002283F85020FB685B6D002B01D01B
:104F0000012300E0002318461837BD4680BD80B558
:104F10008AB000AFF860B9607A607B8001237B6261
:104F2000FDF720FE3862FB6893F85130FB77FB6891
:104F30005B68BB617B88FB82FB7F012B0CD0BB696C
:104F4000B3F5827F06D1FB689B68002B02D1FB7F03
:104F5000042B01D002237FE1BB68002B05D07B68C6
:104F6000002B02D07B88002B01D1012374E1FB6868
:104F700093F85030012B01D102236DE1FB6801222F
:104F800083F85020FB6893F85130DBB2042B03D038
:104F9000FB68052283F85120FB6800225A65FB68F4
:104FA0007A689A63FB687A88DA87FB687A889A87D6
:104FB000FB68BA681A63FB687A88DA86FB687A88C5
:104FC0009A86FB6800221A64FB6800225A64FB6818
:104FD0001B681B6803F04003402B07D0FB681B686D
:104FE0001A68FB681B6842F040021A60FB68DB68C5
:104FF000B3F5006F7ED1FB685B68002B02D0FB8AA3
:10500000012B6CD1FB681B6B1A88FB681B68DA608C
:10501000FB681B6B9A1CFB681A63FB68DB8E9BB2F8
:10502000013B9AB2FB68DA8659E0FB681B689B6813
:1050300003F00203022B1BD1FB68DB8E9BB2002B1B
:1050400016D07B6A012B13D1FB681B6B1A88FB6897
:105050001B68DA60FB681B6B9A1CFB681A63FB68B1
:10506000DB8E9BB2013B9AB2FB68DA8600237B623F
:10507000FB681B689B6803F00103012B19D1FB68D7
:10508000DB8F9BB2002B14D0FB681B68DA68FB68CF
:105090009B6B92B21A80FB689B6B9A1CFB689A63AD
:1050A000FB68DB8F9BB2013B9AB2FB68DA87012376
:1050B0007B62FDF757FD02463B6AD31A3A6B9A4270
:1050C0000DD83B6BB3F1FF3F09D0FB68012283F899
:1050D0005120FB68002283F850200323BCE0FB68CA
:1050E000DB8E9BB2002BA0D1FB68DB8F9BB2002B29
:1050F0009BD182E0FB685B68002B02D0FB8A012B0E
:1051000071D1FB681A6BFB681B680C3312781A703C
:10511000FB681B6B5A1CFB681A63FB68DB8E9BB237
:10512000013B9AB2FB68DA865DE0FB681B689B680E
:1051300003F00203022B1CD1FB68DB8E9BB2002B19
:1051400017D07B6A012B14D1FB681A6BFB681B68B4
:105150000C3312781A70FB681B6B5A1CFB681A63BD
:10516000FB68DB8E9BB2013B9AB2FB68DA860023B8
:105170007B62FB681B689B6803F00103012B19D15C
:10518000FB68DB8F9BB2002B14D0FB681B68DA68CE
:10519000FB689B6BD2B21A70FB689B6B5A1CFB6856
:1051A0009A63FB68DB8F9BB2013B9AB2FB68DA879C
:1051B00001237B62FDF7D6FC02463B6AD31A3A6BA9
:1051C0009A4203D83B6BB3F1FF3F02D13B6B002BFC
:1051D00009D1FB68012283F85120FB68002283F883
:1051E0005020032338E0FB68DB8E9BB2002B9CD160
:1051F000FB68DB8F9BB2002B97D13A6A396BF8685A
:1052000000F05AFB0346002B08D0FB6820225A65A9
:10521000FB68002283F8502001231DE0FB689B6897
:10522000002B0AD100233B61FB681B68DB683B61F4
:10523000FB681B689B683B613B69FB68012283F844
:105240005120FB68002283F85020FB685B6D002B27
:1052500001D0012300E0002318462837BD4680BD59
:1052600080B487B000AFF860B9607A607B80FB687B
:1052700093F85130FB75FB685B683B61FB7D012B4C
:105280000CD03B69B3F5827F06D1FB689B68002B8D
:1052900002D1FB7D042B01D0022361E0BB68002B0F
:1052A00005D07B68002B02D07B88002B01D1012325
:1052B00056E0FB6893F85030012B01D102234FE0F8
:1052C000FB68012283F85020FB6893F85130DBB271
:1052D000042B03D0FB68052283F85120FB680022D1
:1052E0005A65FB68BA681A63FB687A889A86FB6815
:1052F0007A88DA86FB687A689A63FB687A889A8784
:10530000FB687A88DA87FB68DB68002B06D0FB68CD
:10531000164A1A64FB68164A5A6405E0FB68154A87
:105320001A64FB68144A5A64FB681B681B6803F024
:105330004003402B07D0FB681B681A68FB681B689A
:1053400042F040021A60FB68002283F85020FB689C
:105350001B685A68FB681B6842F0E0025A60002331
:1053600018461C37BD4680BC704700BF4756000832
:10537000A756000883550008E755000880B588B097
:1053800000AF78607B681B685B68FB617B681B68AB
:105390009B68BB61BB699B0903F00103002B0FD124
:1053A000BB6903F00103002B0AD0FB699B0903F0E2
:1053B0000103002B04D07B681B6C78689847BEE023
:1053C000BB695B0803F00103002B0AD0FB69DB0912
:1053D00003F00103002B04D07B685B6C786898476E
:1053E000ADE0BB695B0903F00103002B06D1BB698B
:1053F0009B0903F00103002B00F0A180FB695B090E
:1054000003F00103002B00F09A80BB699B0903F0B5
:105410000103002B23D07B6893F85130DBB2032BC0
:1054200011D07B685B6D43F004027B685A650023F2
:105430007B617B681B68DB687B617B681B689B68A2
:105440007B617B690BE000233B617B681B68DB6849
:105450003B617B681B689B683B613B696FE0BB6994
:105460005B0903F00103002B14D07B685B6D43F0F4
:1054700001027B685A650023FB607B681B689B68A0
:10548000FB607B681B681A687B681B6822F040021F
:105490001A60FB687B685B6D002B4FD07B681B68D4
:1054A0005A687B681B6822F0E0025A607B68012220
:1054B00083F85120FB6903F00203002B04D1FB6940
:1054C00003F00103002B34D07B681B685A687B68AB
:1054D0001B6822F003025A607B68DB6C002B11D042
:1054E0007B68DB6C174A5A637B68DB6C1846FEF7F7
:1054F00053FA0346002B05D07B685B6D43F04002F6
:105500007B685A657B689B6C002B16D07B689B6C14
:105510000C4A5A637B689B6C1846FEF73DFA0346BB
:10552000002B0AD07B685B6D43F040027B685A65B4
:1055300003E0786801F03CFD00E000BF00BF2037C9
:10554000BD4680BD5B55000880B483B000AF786075
:1055500000BF0C37BD4680BC704780B584B000AF3B
:1055600078607B685B6AFB60FB680022DA87FB6817
:105570000022DA86F86801F01BFD00BF1037BD4637
:1055800080BD80B582B000AF78607B681B6803F196
:105590000C027B689B6B1278D2B21A707B689B6B93
:1055A0005A1C7B689A637B68DB8F9BB2013B9AB283
:1055B0007B68DA877B68DB8F9BB2002B0FD17B681F
:1055C0001B685A687B681B6822F060025A607B681F
:1055D000DB8E9BB2002B02D1786800F09FF900BFF0
:1055E0000837BD4680BD80B582B000AF78607B686B
:1055F0001A6B7B681B680C3312781A707B681B6B04
:105600005A1C7B681A637B68DB8E9BB2013B9AB2A3
:105610007B68DA867B68DB8E9BB2002B0FD17B68C0
:105620001B685A687B681B6822F080025A607B689E
:10563000DB8F9BB2002B02D1786800F06FF900BFBE
:105640000837BD4680BD80B582B000AF78607B680A
:105650001B68DA687B689B6B92B21A807B689B6BD5
:105660009A1C7B689A637B68DB8F9BB2013B9AB282
:105670007B68DA877B68DB8F9BB2002B0FD17B685E
:105680001B685A687B681B6822F040025A607B687E
:10569000DB8E9BB2002B02D1786800F03FF900BF8F
:1056A0000837BD4680BD80B582B000AF78607B68AA
:1056B0001B6B1A887B681B68DA607B681B6B9A1C03
:1056C0007B681A637B68DB8E9BB2013B9AB27B6876
:1056D000DA867B68DB8E9BB2002B0FD17B681B6860
:1056E0005A687B681B6822F080025A607B68DB8FF7
:1056F0009BB2002B02D1786800F010F900BF083788
:10570000BD4680BD80B588B000AFF860B9603B6031
:105710001346FB71FDF726FA0246BB6A9B1A3A68EC
:105720001344FB61FDF71EFAB861394B1B685B013E
:105730001B0DFA6902FB03F37B6154E03B68B3F194
:10574000FF3F50D0FDF70EFA0246BB69D31AFA6943
:105750009A4202D9FB69002B3DD1FB681B685A684D
:10576000FB681B6822F0E0025A60FB685B68B3F5D7
:10577000827F11D1FB689B68B3F5004F04D0FB68B2
:105780009B68B3F5806F07D1FB681B681A68FB68DC
:105790001B6822F040021A60FB689B6AB3F5005F49
:1057A0000FD1FB681B681A68FB681B6822F4005263
:1057B0001A60FB681B681A68FB681B6842F4005299
:1057C0001A60FB68012283F85120FB68002283F8ED
:1057D0005020032317E07B69002B01D10023FB61DC
:1057E0007B69013B7B61FB681B689A68BB6813405F
:1057F000BA689A420CBF01230023DBB21A46FB7938
:105800009A429BD1002318462037BD4680BD00BF79
:105810000800002080B586B002AFF860B9607A60F9
:10582000FB685B68B3F5827F11D1FB689B68B3F5B9
:10583000004F04D0FB689B68B3F5806F07D1FB680D
:105840001B681A68FB681B6822F040021A60FB683C
:105850005B68B3F5827F17D1FB689B68B3F5806FF7
:1058600012D17B680093BB6800220121F868FFF722
:1058700049FF0346002B1AD0FB685B6D43F0200202
:10588000FB685A65032313E07B680093BB68002222
:105890008021F868FFF736FF0346002B07D0FB682E
:1058A0005B6D43F02002FB685A65032300E0002390
:1058B00018461037BD4680BD80B586B002AFF8608F
:1058C000B9607A607B680093BB6801220221F868A6
:1058D000FFF718FF0346002B07D0FB685B6D43F012
:1058E0002002FB685A65032313E07B680093BB68C2
:1058F00000228021F868FFF705FF0346002B07D040
:10590000FB685B6D43F02002FB685A65032300E0EF
:10591000002318461037BD4680BD000080B586B014
:1059200000AF7860354B1B68354AA2FB03235B0A46
:10593000642202FB03F33B61FDF714F978617B6895
:105940001B685A687B681B6822F020025A603B691A
:10595000002B06D17B685B6D43F020027B685A65A3
:1059600009E03B69013B3B617B681B689B6803F076
:105970000203002BEBD07A6964217868FFF79CFF63
:105980000346002B05D07B685B6D43F020027B68EB
:105990005A657B689B68002B0AD10023FB607B68FB
:1059A0001B68DB68FB607B681B689B68FB60FB68AF
:1059B0007B685B6D002B15D17B6893F85130DBB2AF
:1059C000042B07D17B68012283F851207868FFF708
:1059D000BBFD0EE07B68012283F85120786801F05E
:1059E000B3FA06E07B68012283F85120786801F061
:1059F000DFFA00BF1837BD4680BD00BF0800002099
:105A0000F119760580B582B000AF78607B68002B15
:105A100001D1012341E07B6893F83D30DBB2002BDC
:105A200006D17B68002283F83C207868FCF7FEFAF8
:105A30007B68022283F83D207B681A687B68043308
:105A40001946104600F054FC7B68012283F846207A
:105A50007B68012283F83E207B68012283F83F2087
:105A60007B68012283F840207B68012283F8412073
:105A70007B68012283F842207B68012283F843205F
:105A80007B68012283F844207B68012283F845204B
:105A90007B68012283F83D20002318460837BD4665
:105AA00080BD000080B485B000AF78607B6893F85B
:105AB0003D30DBB2012B01D001233AE07B680222AA
:105AC00083F83D207B681B68DA687B681B6842F0BE
:105AD0000102DA607B681B68184A93420ED07B682B
